:100000000C9466060C9483060C9483060C94830669
:100010000C9483060C9483060C9483060C94970628
:100020000C9483060C9483060C9483060C9483062C
:100030000C9483060C9483060C9483060C9483061C
:100040000C9483060C9483060C9483060C9483060C
:100050000C9483060C9483060C9483060C948306FC
:100060000C9483060C948306485454502F312E3040
:1000700020343034204E6F7420466F756E640D0A44
:10008000436F6E74656E742D547970653A20746593
:1000900078742F68746D6C0D0A0D0A3C68313E341B
:1000A0003034204E6F7420466F756E643C2F68317B
:1000B0003E00485454502F312E30203430312055DA
:1000C0006E617574686F72697A65640D0A436F6E4C
:1000D00074656E742D547970653A20746578742F48
:1000E00068746D6C0D0A0D0A3C68313E3430312065
:1000F000556E617574686F72697A65643C2F6831FA
:100100003E3C6120687265663D2F3E636F6E746988
:100110006E75653C2F613E0A003C68313E333031DC
:10012000204D6F766564205065726D616E656E74EA
:100130006C793C2F68313E0A000D0A0D0A436F6E40
:1001400074656E742D547970653A20746578742FD7
:1001500068746D6C0D0A0D0A00687474703A2F2F64
:1001600074757867726170686963732E6F72672F38
:1001700069636F2F746865726D2E69636F004854F0
:1001800054502F312E3020333031204D6F7665643E
:10019000205065726D616E656E746C790D0A4C6FDE
:1001A000636174696F6E3A20000A3C2F7072653E7D
:1001B0003C68723E286329726F62696E636C61727B
:1001C0006B652E6E65740A000A00203A20005320E9
:1001D0005261773A20000A006C696D697454656D4C
:1001E00070426F74746F6D3A20000A006C696D691B
:1001F0007454656D70546F703A20000A005377692B
:1002000074636853746174653A200064733138789C
:100210003230206572726F720A0027465D0A00272D
:1002200043205B0020203A200074656D702053004D
:100230006E6F2073656E736F720A003C623E4453AA
:1002400031385332302053656E736F72733C2F62B6
:100250003E0A0027465D0A0A002743205B006465CA
:100260007720706F696E743A2000250A0068756DFA
:100270006964697479203A20000A0068756D692004
:100280006C696E203A20000A0027465D0027432053
:100290005B0074656D702E202020203A20000A003B
:1002A000200044454255473A207261772074656DBD
:1002B000702068756D693A000A0074696D656F7524
:1002C00074206572726F720A0073656E736F7220AC
:1002D000637263206572726F720A006E6F207365BD
:1002E0006E736F720A003C623E496E646F6F7220DB
:1002F00053485431312053656E736F723C2F623E08
:100300000A00776169742E2E2E0A003C7072653ED9
:10031000003C6120687265663D2E2F3E5B7265660B
:10032000726573685D3C2F613E0A3C68323E4375DE
:100330007272656E7420636F6E646974696F6E7338
:100340003C2F68323E003C6120687265663D2E2F6E
:100350003F73773D313E5B7377697463685D3C2F13
:10036000613E203C6120687265663D2E2F3F633DF3
:10037000313E5B6366675D3C2F613E203C612068D7
:100380007265663D2E2F3F673D303E5B6772617040
:10039000685D3C2F613E2000647728223C2F746406
:1003A0003E3C2F74723E3C2F7461626C653E222984
:1003B0003B0A3C2F7363726970743E0A3C62723E62
:1003C0003C68723E0A006270742867646174322C63
:1003D00022663732222C322C224F75742054656DE0
:1003E0007022293B0A00647728223C2F74643E3C2B
:1003F00074643E22293B0A00627074286764617449
:10040000312C22373863222C312E352C22496E2094
:1004100048756D6964697479202522293B0A006456
:100420007728223C2F74643E3C74643E22293B0AA8
:10043000006270742867646174302C226562302217
:100440002C322C22496E2054656D7022293B0A0003
:10045000647728223C7461626C6520626F72646507
:10046000723D313E3C74723E3C74643E22293B0A2C
:10047000003C7363726970743E0A003C61206872CC
:1004800065663D6A6176617363726970743A73631D
:1004900076732867646174302C67646174312C67EB
:1004A00064617432293E5B43535620646174615D1C
:1004B0003C2F613E0A003C6120687265663D2E2F2C
:1004C0003E5B686F6D655D3C2F613E20003C736351
:1004D00072697074207372633D67646174322E6A4E
:1004E000733E3C2F7363726970743E0A003C736301
:1004F00072697074207372633D67646174312E6A2F
:10050000733E3C2F7363726970743E003C73637278
:10051000697074207372633D67646174302E6A730E
:100520003E3C2F7363726970743E003C7363726962
:100530007074207372633D70312E6A733E3C2F736A
:1005400063726970743E3C73637269707420737275
:10055000633D70322E6A733E3C2F73637269707410
:100560003E0A00303B3C2F7363726970743E0A0090
:100570003B76617220643D003C7363726970743E27
:1005800076617220743D6E65772044617465282918
:100590003B766172206D3D00293B0A002C0030291A
:1005A0003B0A003D41727261792800676461740002
:1005B00066756E6374696F6E207062617228772C45
:1005C000632C74297B696628773C35297B773D3518
:1005D0003B7D647728223C70207374796C653D5CA8
:1005E0002277696474683A222B772B2270783B62F9
:1005F00061636B67726F756E642D636F6C6F723AB7
:1006000023222B632B223B6D617267696E3A327035
:10061000783B626F726465723A31707820233939A1
:100620003920736F6C69643B77686974652D7370EA
:100630006163653A7072653B5C223E222B742B220B
:100640003C2F703E22293B7D0A66756E6374696F8C
:100650006E206270742867642C632C612C68297B7F
:10066000647728223C68323E222B682B223C2F687C
:10067000323E22293B76617220692C6E2C6D732CE0
:1006800070743B6D733D742E67657454696D652895
:10069000293B766172206C3D6E65772044617465FC
:1006A00028293B666F7228693D303B693C67642EA0
:1006B0006C656E6774683B692B2B297B2070743DD9
:1006C0006D732D28286D2B642A69292A36302A312A
:1006D000303030293B206C2E73657454696D652869
:1006E0007074293B206E3D7061727365496E742889
:1006F00067645B695D293B20706261722828612A0A
:100700006E2B313230292C632C706164286C2E677B
:100710006574446174652829292B222D222B706170
:1007200064286C2E676574486F7572732829292BAD
:10073000223A222B706164286C2E6765744D696EB5
:10074000757465732829292B223D222B6E293B7D48
:100750000A647728223C62723E545A2064696666B5
:1007600020474D543A20222B742E67657454696DCE
:10077000657A6F6E654F666673657428292F36300B
:100780002B22682E20466F726D61743A2064617965
:100790002D68683A6D6D3D76616C3C62723E22292F
:1007A0003B7D0A0066756E6374696F6E20706164CC
:1007B000286E297B76617220733D6E2E746F5374A0
:1007C00072696E67283130293B69662028732E6C68
:1007D000656E6774683C32297B72657475726E2829
:1007E0002230222B73297D72657475726E287329ED
:1007F0003B7D0A66756E6374696F6E20647728733B
:10080000297B646F63756D656E742E77726974658C
:100810006C6E2873297D0A66756E6374696F6E202D
:10082000736376732867312C67322C6733297B64B6
:100830006F63756D656E742E6F70656E28293B64ED
:100840007728223C7072653E23436F70792F706168
:10085000737465206173207478742066696C653ADE
:1008600022293B6477282223646174653B695F74A5
:10087000656D703B695F68756D3B6F5F74656D702A
:100880003B22293B76617220692C6D732C70743B7E
:100890006D733D742E67657454696D6528293B76C8
:1008A0006172206C3D6E6577204461746528293B38
:1008B000666F7228693D303B693C67312E6C656E0E
:1008C0006774683B692B2B297B70743D6D732D28F1
:1008D000286D2B642A69292A36302A313030302994
:1008E0003B6C2E73657454696D65287074293B6484
:1008F00077286C2E67657446756C6C596561722833
:10090000292B222D222B706164286C2E6765744D73
:100910006F6E74682829292B222D222B7061642880
:100920006C2E676574446174652829292B22202266
:100930002B706164286C2E676574486F757273281C
:1009400029292B223A222B706164286C2E6765744A
:100950004D696E757465732829292B223B222B67FC
:10096000315B695D2B223B222B67325B695D2B2259
:100970003B222B67335B695D2B223B22293B7D6445
:100980006F63756D656E742E636C6F736528293B9C
:100990007D0A003C2F7072653E3C68723E0A003C46
:1009A000696E70757420747970653D7375626D69D8
:1009B000742076616C75653D227377697463682075
:1009C0006F6E223E3C2F666F726D3E0A00313E0A0A
:1009D00070617373773A203C696E70757420747916
:1009E00070653D70617373776F72642073697A65A7
:1009F0003D3130206E616D653D70773E003C696E23
:100A000070757420747970653D7375626D697420BA
:100A100076616C75653D22737769746368206F66D3
:100A200066223E3C2F666F726D3E0A00303E0A70B1
:100A3000617373773A203C696E70757420747970B5
:100A4000653D70617373776F72642073697A653D79
:100A50003130206E616D653D70773E003C696E708F
:100A6000757420747970653D68696464656E206E84
:100A7000616D653D73632076616C75653D000A3C70
:100A8000666F726D20616374696F6E3D2F206D65B6
:100A900074686F643D6765743E004F4646003C666F
:100AA0006F6E7420636F6C6F723D2330304646303A
:100AB000303E4F4E3C2F666F6E743E003C68323EB7
:100AC0005377697463683C2F68323E0A3C707265E4
:100AD0003E73746174653A20003C612068726566FB
:100AE0003D2E2F3E5B686F6D655D3C2F613E203C67
:100AF0006120687265663D2E2F3F73773D313E5B06
:100B0000726566726573685D3C2F613E0A003C2F1A
:100B10007072653E3C68723E0A003C696E70757486
:100B200020747970653D7375626D69742076616CAF
:100B300075653D226368616E6765223E3C2F666F76
:100B4000726D3E0A003E5B2A3130206D696E2C20AA
:100B5000363D31685D0A70617373772E20203A3C10
:100B6000696E70757420747970653D706173737708
:100B70006F72642073697A653D3130206E616D65F6
:100B80003D70773E0A00696E74657276616C3A3C1E
:100B9000696E70757420747970653D746578742021
:100BA0006E616D653D72692073697A653D332076AB
:100BB000616C75653D000A3C666F726D20616374FF
:100BC000696F6E3D2F206D6574686F643D67657455
:100BD0003E003C68323E4772617068207265636F08
:100BE0007264696E6720636F6E6669673C2F683256
:100BF0003E0A3C7072653E003C6120687265663D4D
:100C00002E2F3E5B686F6D655D3C2F613E0A00488C
:100C10005454502F312E3020323030204F4B0D0A9B
:100C2000436F6E74656E742D547970653A206170EF
:100C3000706C69636174696F6E2F782D6A6176617B
:100C40007363726970740D0A0D0A00485454502F72
:100C5000312E3020323030204F4B0D0A436F6E74EE
:100C6000656E742D547970653A20746578742F68B8
:100C7000746D6C0D0A507261676D613A206E6F2D54
:100C800063616368650D0A0D0A000001080006042F
:100C900000013A0020534E3D0020435243204F4B69
:100CA0002000204352432045727200204352433DAE
:100CB00030780028203F2029002831384229002898
:100CC000313853290046433D3078000011241FBEBF
:100CD000CFEFD8E0DEBFCDBF11E0A0E0B1E0ECE6A1
:100CE000FAE302C005900D92A436B107D9F714E0DB
:100CF000A4E6B1E001C01D92A733B107E1F70E945D
:100D00000C0E0C94341D0C9400009C01220F331F18
:100D1000C90143E0880F991F4A95E1F7820F931F9D
:100D200064E670E00E946F1C862F805E08951F921B
:100D30000F920FB60F9211248F9380916F018F5FE6
:100D400080936F0180916F01823360F0809169011F
:100D50008F5F80936901809168018F5F8093680144
:100D600010926F018F910F900FBE0F901F901895EA
:100D700010926F01E4E6F0E080818F7B808392E047
:100D8000909370001092B20084EF8093B300909320
:100D9000B00087E08093B100089597FF02C00597E7
:100DA00001C005966AE070E00E946F1C862F0895CE
:100DB00090E0889628E4629FB0011124860F971F67
:100DC0000E940E1D089580E791E060E070E04FE022
:100DD0005CE00E94B81008950F931F9300E711E0A4
:100DE000C80160E070E04FE05CE00E94B810BC0118
:100DF000C80140EB55E00E94B8101F910F91089573
:100E00000F931F9300E711E0C80160E070E04FE02E
:100E10005CE00E94B810BC01C80144EA57E00E949F
:100E2000B8101F910F91089580E791E060E070E0A5
:100E30004BE45CE00E94B81008951F93182F80E7E0
:100E400091E060E070E04BE45CE00E94B810BC010F
:100E500080E791E049ED5AE00E94B810BC0180E7BC
:100E600091E04CEB5AE00E94B810BC01112329F02C
:100E700080E791E04EE95AE004C080E791E04AE95A
:100E80005AE00E94B810BC0180E791E04EE75AE0BA
:100E90000E94B810BC0180E791E04CE55AE00E9446
:100EA000B810BC01112361F080E791E04CE25AE0F8
:100EB0000E94B810BC0180E791E04DEF59E00BC0F3
:100EC00080E791E04DEC59E00E94B810BC0180E74A
:100ED00091E04FE959E00E94B810BC0180E791E031
:100EE00043E959E00E94B8109093070480930604E8
:100EF0001F910895CF92DF92FF920F931F93DF937C
:100F0000CF930F92CDB7DEB78FEF898308E014E05F
:100F1000FF246E010894C11CD11C0CC0C601B8018D
:100F20000E94A61B89818F3F61F0085F1F4F8E3F93
:100F300041F0F3948981882319F082E0F81671F763
:100F40008F2D0F90CF91DF911F910F91FF90DF9028
:100F5000CF90089510926E0180E090E00E94351BC2
:100F6000882319F081E080936E010895A3E0B0E03A
:100F7000ECEBF7E00C94861CDD24B2E06B2E712CB8
:100F80006C0E7D1EA3E08A2E912C8C0E9D1E5E01A0
:100F90000894A11CB11CFAE0CF2E37C0C701E3E0D2
:100FA000880F991FEA95E1F7885F9B4FB501A30170
:100FB00094010E946C1BF701EE0FFF1F882301F5BF
:100FC0000A810C9D8001112468E1E62E64E0F62E72
:100FD000EE0EFF1EF701118300838B810E94271BF9
:100FE0009801280F311DF7013183208389818823DF
:100FF00059F088279927821B930B9183808304C023
:10100000E85EFB4F11821082D394ED2CFF24809177
:101010006701992787FD9095E816F9060CF4BECF75
:101020002396EEE00C94A21C382F862F90E0889631
:1010300028E4429FA0011124840F951F632F0E9472
:10104000161D0895CF93DF9380916A0190916B01F3
:10105000892B09F045C080913404882359F0809190
:101060006C0190E080599F4F60E00E94161DC0E027
:10107000D0E016C080913204909133040E94E418AD
:10108000EC018091350490913604BE010E941E1936
:10109000682F80916C0190E080599F4F0E94161D2F
:1010A000CE010E94CD06682F80916C0190E0889659
:1010B0000E94161D80911804909119040E94CD067B
:1010C000682F80916C0190E088549F4F0E94161DFC
:1010D00080916C018F5F68E40E944F1C90936C01BB
:1010E00080916D01813138F0809169018F5F80932B
:1010F000690110926D0120916A0130916B01C90163
:1011000065E070E00E945B1C892B51F480916901BD
:101110008F5F8093690180916D018F5F80936D0176
:10112000C901019690936B0180936A0120914B0154
:101130004AE0249F900111248217930721F4109212
:101140006B0110926A01DF91CF910895CF93DF93E5
:10115000C8E2D0E0CE0160E00E94161DCE01885B9F
:101160009F4F60E00E94161DCE0180579F4F60E0A8
:101170000E94161D2196C037D10561F7DF91CF91EE
:101180000895CF92DF92EF92FF920F931F937C010D
:101190006B01CA0101EF13E0B8014AE050E00E9480
:1011A000E51CC701B601A8010E94CC121F910F9146
:1011B000FF90EF90DF90CF9008950F931F9300E77B
:1011C00011E0C80160E070E04BE45CE00E94B81000
:1011D000BC01C80148E755E00E94B810BC0140912D
:1011E0006A0150916B01C8010E94C108BC01C8018D
:1011F00040E755E00E94B810BC0140914B01C80186
:1012000050E00E94C108BC01C80143E655E00E94BD
:10121000B810BC01C8014BE255E00E94B810BC01F7
:10122000C8014CE055E00E94B810BC01C8014DEE69
:1012300054E00E94B810BC01C8014DEC54E00E947B
:10124000B810BC01C80146EB54E00E94B810BC01C4
:10125000C8014BE754E00E94B810BC01C80141E747
:1012600054E00E94B810BC01C80140E554E00E945F
:10127000B810BC01C80141E354E00E94B810BC01A1
:10128000C8014FE154E00E94B810BC01C80148EF0A
:1012900053E00E94B810BC01C80146EE53E00E9422
:1012A000B810BC01C80146EC53E00E94B810BC0164
:1012B000C80148E953E00E94B8101F910F910895AA
:1012C000EF92FF920F931F93CF93DF93082F80E746
:1012D00091E060E070E04FE05CE00E94B810BC017B
:1012E00010916C0180E791E04BEA55E00E94B81044
:1012F000BC0180E791E0402F50E00E94C108BC0192
:1013000080E791E043EA55E00E94B810EC01F99BB8
:1013100006C080E791E0BE014EE955E030C0E12E05
:10132000FF24812F992787FD90958E159F0541F009
:1013300080E791E0BE014CE955E00E94B810EC0155
:10134000115017FD17E4033070F4812F602F0E94B5
:10135000D806482F552747FD509580E791E0BE01FC
:101360000E94C108EC01812F992787FD90958E1569
:101370009F05B9F680E791E0BE0148E955E00E947B
:10138000B810CDB7DEB7E6E00C94AA1C0F931F93FC
:1013900000E711E0C80160E070E04BE45CE00E940F
:1013A000B810BC01C80148EF5BE00E94B810BC0156
:1013B000C80142ED5BE00E94B810BC01C80146EBD9
:1013C0005BE00E94B810BC01C80146E85BE00E94E7
:1013D000B810BC0140914B01C80150E00E94C10807
:1013E000BC01C80145E45BE00E94B810BC01C80123
:1013F0004AE15BE00E94B810BC01C8014EE05BE02E
:101400000E94B8101F910F910895EF92FF920F93D1
:101410001F93F82EE92E6AE070E00E946F1CCB014A
:1014200001EF13E0B8014AE050E00E94E51CF8012A
:1014300001900020E9F78F0101501040015F134037
:10144000E02FF0E0EF50FC4F8EE280832F2D3E2DF9
:10145000C90197FF03C0909581959F4F6AE070E0A6
:101460000E946F1C602F70E06E507C4F4AE050E08D
:101470000E94E51C1F910F91FF90EF900895A0E04E
:10148000B0E0E5E4FAE00C948D1C80E791E060E0C8
:1014900070E04BE45CE00E94B810BC0180E791E092
:1014A00046E453E00E94B810BC0180E791E041E1BE
:1014B00053E00E94B810BC0180E791E04BE053E09C
:1014C0000E94B810BC0180916401882329F480E750
:1014D00091E042E053E0F7C180E791E046EE52E050
:1014E0000E94B810BC01809134048823E1F081305F
:1014F00029F480E791E04BED52E00DC0823029F4F1
:1015000080E791E049EC52E006C0833039F480E78F
:1015100091E04AEB52E00E94B810BC0180E791E0F4
:1015200048EB52E0FBC080E791E042EA52E00E94C3
:10153000B8108C01809132049091330461EF73E014
:101540004AE050E00E94E51C80E791E0B80141EFDD
:1015500053E00E94CC12BC0180E791E040EA52E0E7
:101560000E94B8108C01809135049091360461EF8F
:1015700073E04AE050E00E94E51C80E791E0B8018A
:1015800041EF53E00E94CC12BC0180E791E04EE9AC
:1015900052E00E94B810BC0180E791E042E952E0BD
:1015A0000E94B8108C0180913204909133040E9403
:1015B000E4187C010E94050A80E791E0B80141EF40
:1015C00053E00E94CC12BC0180E791E04DE852E06C
:1015D0000E94B8108C01C7010E948506992787FDDB
:1015E000909561EF73E04AE050E00E94E51C80E7CF
:1015F00091E0B80141EF53E00E94CC12BC0180E7BA
:1016000091E049E852E00E94B810BC0180E791E007
:1016100047E852E00E94B810BC0180E791E04BE738
:1016200052E00E94B8108C018091350490913604EC
:101630000E94ED18992787FD909561EF73E04AE0CD
:1016400050E00E94E51C80E791E0B80141EF53E0D3
:101650000E94CC12BC0180E791E049E752E00E9471
:10166000B810BC0180E791E04DE652E00E94B8104E
:101670008C018091350490913604B7010E941E19A7
:10168000D82E992787FD909561EF73E04AE050E0EE
:101690000E94E51C80E791E0B80141EF53E00E9411
:1016A000CC12BC0180E791E04AE652E00E94B810FB
:1016B000BC0180E791E04EE552E00E94B8108C0139
:1016C0008D2DB7010E9485197C010E94050A80E7D3
:1016D00091E0B80141EF53E00E94CC12BC0180E7D9
:1016E00091E049E552E00E94B8108C01C7010E94C8
:1016F0008506992787FD909561EF73E04AE050E0F9
:101700000E94E51C80E791E0B80141EF53E00E94A0
:10171000CC12BC0180E791E043E552E00E94B81092
:10172000BC0180E791E04BE352E00E94B810BC019D
:101730008091670118163CF080E791E040E352E0A9
:101740000E94B810BC0188E1E82E84E0F82EC0E0C9
:10175000D0E040C080E791E049E252E00E94B8103A
:10176000BC0180E791E0AE010E94C108BC0180E7A6
:1017700091E044E252E00E94B8108C01F7018081B0
:1017800091810E94050A80E791E0B80141EF53E0A2
:101790000E94CC12BC0180E791E04FE152E00E9430
:1017A000B8108C01F701819191917F010E9485060B
:1017B000482F552747FD509580E791E0B8010E94DA
:1017C000C108BC0180E791E04AE152E00E94B810F4
:1017D000BC01219680916701C8170CF4BBCF8091A2
:1017E0006E01813039F480E791E04BE052E00E94D5
:1017F000B810BC0180E791E04DEF51E00E94B810B5
:10180000BC01409165015091660180E791E00E9422
:10181000C108BC0180E791E04BEF51E00E94B81095
:10182000BC0180E791E04CEE51E00E94B810BC0191
:1018300040913D0150913E0180E791E00E94C10836
:10184000BC0180E791E04AEE51E00E94B810BC0173
:1018500080E791E048ED51E00E94B810BC01409152
:101860003F015091400180E791E00E94C108BC0116
:1018700080E791E046ED51E00E94B810BC0180E79E
:1018800091E04EEC51E00E94B810BC014091180468
:101890005091190480E791E00E94C108BC0180E7E3
:1018A00091E04AEC51E00E94B810BC0140911A044A
:1018B00050911B0480E791E00E94C108BC0180E7C1
:1018C00091E048EC51E00E94B810BC0180E791E043
:1018D00049EA51E00E94B810CDB7DEB7E7E00C94BA
:1018E000A91CBC01ACE4B1E0FD0101900020E9F7C6
:1018F0003197EA1BFB0BCD01AF010E94D71C9C0165
:1019000080E0232B09F481E008950F931F93CF9378
:10191000DF93EC018881803209F4CCC080E091E053
:10192000BE014BE050E00E94D71C009751F580E7C4
:1019300091E060E070E04EE751E00E94B810BC0119
:10194000909307048093060480E791E049E551E015
:101950000E94B810BC01909307048093060480E7AE
:1019600091E049E351E00E94B810BC019093070454
:101970008093060480E791E049E151E00E94B810AD
:101980003DC1CE0161EF73E044E12CE031E00E9403
:101990009F15882301F11091F103CE0161EF73E0EF
:1019A00044E12FE031E00E949F15882309F42CC107
:1019B00081EF93E00E94FD1581EF93E00E94710C8E
:1019C000882309F421C1113311F45F9A01C05F9893
:1019D0008BB180787FC0CE0161EF73E044E122E1FA
:1019E00031E00E949F15882369F181EF93E00E9406
:1019F000FD1581EF93E00E94B91C8C01CE0161EFCF
:101A000073E044E12FE031E00E949F15882309F440
:101A1000FBC081EF93E00E94FD1581EF93E00E94EF
:101A2000710C882309F4F0C01093400100933F012A
:101A30008EE090E06AE10E94161D8FE090E06091D8
:101A40003F0136C0CE0161EF73E044E128E131E0AF
:101A50000E949F15882381F181EF93E00E94FD157C
:101A600081EF93E00E94B91C8C01CE0161EF73E01D
:101A700044E12FE031E00E949F15882309F4C4C09F
:101A800081EF93E00E94FD1581EF93E00E94710CBD
:101A9000882309F4B9C010933E0100933D0180E111
:101AA00090E06AE10E94161D81E190E060913D01A5
:101AB0000E94161D81E0ABC0CE0161EF73E044E1EE
:101AC0002EE131E00E949F15882339F08BB1881FE9
:101AD0008827881F0E941D0795C081E291E0BE0102
:101AE00045E050E00E94D71C009719F40E940007BF
:101AF00085C087E291E0BE0145E050E00E94D71C1E
:101B0000009719F40E94EC0679C0CE0161EF73E0F2
:101B100044E12DE231E00E949F15882319F00E94D4
:101B2000DD086CC0CE0161EF73E044E12FE231E0EB
:101B30000E949F15882319F00E94C6095FC0CE013C
:101B400061EF73E044E121E331E00E949F158823B7
:101B500099F11092F50381EF93E00E94B91C182FC0
:101B6000833008F413E0CE0161EF73E044E12FE02D
:101B700031E00E949F15882309F446C081EF93E06D
:101B80000E94FD1581EF93E00E94710C8823E1F122
:101B90000E94A60810934B011092640110926B01F1
:101BA00010926A0182E190E06AE10E94161D83E1D1
:101BB00090E060914B017CCF84E391E0BE0144E072
:101BC00050E00E94D71C009709F5BE016B5F7F4F64
:101BD00089E391E043E050E00E94D71C0097B1F404
:101BE0006C81603311F480E007C0613311F481E04F
:101BF00003C0623359F482E00E94600990930704A5
:101C0000809306048AE003C08FEF01C080E0DF917B
:101C1000CF911F910F910895FF920F931F93CF9330
:101C2000DF9380E8809361001092610010E0812FC3
:101C30008A95F1F781E491E00E94C71382E00E9447
:101C4000C1131A95F1F70E94B8067894219A299A3F
:101C5000579A5F9884E166E774E00E94A31381E4D9
:101C600091E067E471E040E550E00E94C20F0E94FD
:101C7000A60881E0809334040E947A07809367016C
:101C800082E190E00E940E1D8A3131F483E190E000
:101C90000E940E1D80934B018EE090E00E940E1D6D
:101CA0008A3141F48FE090E00E940E1D80933F0145
:101CB0001092400180E190E00E940E1D8A3141F4B3
:101CC00081E190E00E940E1D80933F01109240013F
:101CD00010E0C1E0D0E001E093E0F92E80E892E06E
:101CE00060E771E00E941215BC0190930704809395
:101CF000060480E791E00E944912AC0180916701DF
:101D00008230ECF020911A0430911B0480913D0147
:101D100090913E018217930734F45F9AD093660145
:101D2000C09365010CC080913F019091400128173C
:101D300039072CF45F9810926601109265014115E5
:101D4000510509F075C0112341F480916801882381
:101D500079F50E940C18299802C01130A9F48091DD
:101D60006801813011F011E023C083E060E00E943F
:101D70004918809334040E94AA07299A8091340458
:101D8000882309F088C002C0123091F480E00E94DC
:101D90005E18882311F412E00BC082E394E060E047
:101DA0000E946E1880933404882309F074C013E0F5
:101DB00080916801823091F40E94B607123019F4C4
:101DC000F09234041BC0133049F485E060E00E94B7
:101DD000491880933404882319F010C0143079F422
:101DE00080E00E945E18882311F414E008C085E3A7
:101DF00094E060E00E946E188093340415E08091B6
:101E00006801833058F01092680180916401882342
:101E100021F40E9422080093640110E0809169017E
:101E20008C3308F45BCF109269010E94220856CFD0
:101E3000FA01F29682E0E038F80718F4E059FE4F14
:101E40001082CA018B589E4F0E94850C8F3F39F437
:101E500080E791E060E070E042EB50E008C088234A
:101E600049F480E791E060E070E048E650E00E94CD
:101E7000B81004C08A3031F00E943F0A90930704E2
:101E800080930604609106047091070480E791E056
:101E90000E94421123CF15E08BCFA0E0B0E0E3E534
:101EA000FFE00C948C1C6C01413081F46850704050
:101EB0007B0100E010E0685F7F4F21E130E040E00F
:101EC00050E0E20EF31E041F151F15C0423021F032
:101ED000EE24FF2487010FC0685070407B0100E0B2
:101EE00010E0685F7F4F86E090E0A0E0B0E0E80E91
:101EF000F91E0A1F1B1FF601EB0116C0808190E03E
:101F0000A0E0B0E0BA2FA92F982F8827218130E0D8
:101F100040E050E0822B932BA42BB52BE80EF91E4A
:101F20000A1F1B1F32962297C230D10538F7FB01DA
:101F3000EE7FEC0DFD1D60FF15C0808190E0A0E0FC
:101F4000B0E0BA2FA92F982F882708C02FEF3FEFB6
:101F500040E050E0E222F32204231523E80EF91EAC
:101F60000A1F1B1FC801AA27BB270097A105B1059F
:101F700069F7970120953095C901CDB7DEB7E8E044
:101F80000C94A81CCF93DF93EC0150931C04409356
:101F9000550120E030E0F901E95DFB4FDB01A20FC4
:101FA000B31F8C9180832F5F3F4F2430310599F709
:101FB00020E030E0F901EF5DFB4FDE01A20FB31F1F
:101FC0008C9180832F5F3F4F2630310599F7DF9149
:101FD000CF910895DC0120E030E0FB01E20FF31F18
:101FE0005A969C915A978081981711F080E0089535
:101FF0002F5F3F4F11962430310579F781E0089526
:10200000FC0169327105B0F08485883099F48585CA
:10201000863081F4DF019696E7E2F4E09C918081BE
:10202000981741F41196319684E0EB32F807B1F736
:1020300081E0089580E00895FC016A327105D0F0D6
:1020400084858830B9F485858823A1F48685853414
:1020500089F4DF01E7E2F4E05E969C915E9780816F
:10206000981741F41196319684E0EB32F807A1F706
:1020700081E0089580E00895FC01A1E2B4E086814A
:1020800080838D918683319684E0A732B807B9F7B3
:1020900008950F931F938C01FC01108E118E80E424
:1020A000848B158A868BC8010E9664E170E040E04F
:1020B0000E944D0FF801908F818F1F910F9108950D
:1020C000AC01FC01A7E2B4E0828D868F8D91828FF6
:1020D000319684E0AB32B807B9F7CA010E944910C3
:1020E0000895FC01B99694E08081680F711D848188
:1020F0006483442311F0808301C010829150319792
:10210000992319F0672F7727EFCF08950F931F9327
:102110008C01FC0194A182A184A392A395A183A127
:1021200085A393A3C8010E947110F80112AA13AAF3
:1021300080E586A71F910F910895FC01908980E0AA
:102140002189422F50E0482B592B26A5822F8295BA
:102150008F7090E0880F991F880F991F481B590BAB
:102160004451504057FF02C040E050E0CA0108957A
:102170006A5C7F4FDC01A60FB71F6653704003C037
:102180008D936F5F7F4FFA014F5F5F4F849188237C
:10219000B9F7CB010895DA016A5C7F4FFC01E60FC5
:1021A000F71F66537040922F03C08D918193915019
:1021B0009923D9F7CB01820F911D089590932004A4
:1021C00080931F040895EF92FF920F931F938C0149
:1021D0007B01CB018896F801908B818BC8010E940E
:1021E0004910F80112AA13AA8CE190E0E80EF91E3A
:1021F000C8014A96B70142E00E944D0FF80192AB28
:1022000083ABC7014A96B8010E949A141F910F919F
:10221000FF90EF900895CF93DF93EC01FC01A1E2D2
:10222000B4E0868180838D918683319684E0A732E5
:10223000B807B9F7842F80618FA7443029F0611562
:10224000710511F461E070E0CE0141E00E9486105A
:10225000188A88E2898BCE010E94601084E088ABE6
:1022600019AACE014A966CE170E042E00E944D0F3F
:102270009AAB8BAB86E390E0BE010E949A14DF918B
:10228000CF910895EF92FF920F931F938C017B01E2
:1022900060911D0470911E0440E00E940B1189E1C1
:1022A000F80187A7C801B7010E94E3101F910F91A1
:1022B000FF90EF900895CF93DF93EC01FC01A1E232
:1022C000B4E0868180838D918683319684E0A73245
:1022D000B807B9F7188A8CE2898BCE010E9460108A
:1022E00082E18FA7CE0161E070E040E00E9486109D
:1022F0001EA21FA28091560188A719A68D5F809308
:10230000560182E08EAB84E08FAB95E098AF19AEBA
:1023100080E68EA798AB88E789ABCE014A9660E24B
:1023200070E042E00E944D0F9AAB8BAB8AE390E0E5
:10233000BE010E949A14DF91CF910895A0E0B0E011
:10234000E4EAF1E10C948D1CEC017B01D22E132FF9
:10235000FC01A1E2B4E0868180838D918683319671
:1023600084E0A732B807B9F7042F4D3D08F00CED13
:10237000188A045E098BCE010E9460108AA18CA38A
:102380008BA18DA31AA3DBA21EA204510FA3085098
:1023900018A619A6DE019A9620E030E007C0F701E2
:1023A000E20FF31F80818D932F5F3F4F2017B8F30B
:1023B00010E0005F1F4FCE014A96B80141E00E9435
:1023C0004D0F98A789A7C8014A96BE010E949A148A
:1023D000CDB7DEB7E7E00C94A91C0F931F93CF9302
:1023E000DF93EC018B01FC01A1E2B4E086818083E4
:1023F0008D918683319684E0A732B807B9F7CE0174
:102400000E9460101AA28CA1883F18F08DA18F5FE6
:102410008DA38CA1885F8CA3C801BE010E949A1471
:10242000DF91CF911F910F910895CF93DF93AC016E
:10243000EC0121E234E0FC01D901868180838D9199
:102440008683319684E0A732B807B9F7FA01148A77
:1024500082E0858B8E8988A3F90181919F018E8B03
:102460002196F4E027323F07A9F7FA017C96A7E20C
:10247000B4E0808182878D91819384E0AB32B8078C
:10248000C1F78AE290E0BA010E949A14DF91CF91DD
:1024900008950F931F93CF93DF93EC018B010E945C
:1024A0000010882341F08D89813009F06DC0CE0184
:1024B0000E94151269C0CE01B8010E941C10882329
:1024C00009F462C09F89913089F48AA1883071F43F
:1024D000E0911F04F0912004309719F0CE014A9644
:1024E0000995CE01B8010E94ED114EC006331105C9
:1024F00018F4963009F048C09CA180911C049817EC
:1025000009F042C09DA1809155019817E9F58FA56A
:10251000682F81FF04C0CE010E945B1135C084FF8B
:1025200033C0988980E0298930E0282B392B8EA58B
:1025300082958F70482F50E0CA01880F991F880F2D
:10254000991F281B390B2451304037FF02C020E06F
:1025500030E030931E0420931D04232B49F460FFC8
:1025600013C0CE0160E070E040E00E940B110CC08F
:102570009A01220F331F220F331F2E5D3F4F085049
:1025800010400217130710F420E030E0C901DF917A
:10259000CF911F910F910895CF93DF93DA010D90A2
:1025A0000020E9F71197A41B6A5C7F4FEC01C60F6E
:1025B000D71F66537040FA01B0E09A012A0F3B1F03
:1025C00002C081918993E217F307D9F79B012A0F83
:1025D0003B1FC901DF91CF9108952A98962F9F71D3
:1025E000982B9EBD0DB407FEFDCF1EBC0DB407FE9B
:1025F000FDCF67FF04C01EBC0DB407FEFDCF2A9AB5
:102600008EB508952A986F71682B6EBD0DB407FEC4
:10261000FDCF4EBD0DB407FEFDCF2A9A0895AC0143
:10262000FB012A988AE38EBD0DB407FEFDCF9A0107
:10263000DF0108C01EBC0DB407FEFDCF21503040A5
:102640008EB58D9321153105A9F7E40FF51F108282
:102650002A9A08959C01FB012A988AE78EBD0DB441
:1026600007FEFDCF08C080818EBD0DB407FEFDCFF3
:1026700021503040319621153105A9F72A9A089545
:10268000482F282F30E02076307080912B0490E086
:1026900028173907F9F02A988FEB8EBD0DB407FE85
:1026A000FDCF83E08EBD0DB407FEFDCF2A9A2A9898
:1026B0008FE98EBD0DB407FEFDCF85E035952795DA
:1026C0008A95E1F72EBD0DB407FEFDCF2A9A40761C
:1026D00040932B0408951F93182F0E94401380E00D
:1026E000612F0E94ED121F9108950F931F93182FD1
:1026F000062F0E9440132A981F7110641EBD0DB44E
:1027000007FEFDCF0EBD0DB407FEFDCF2A9A1F9127
:102710000F910895682F84ED0E94751382ED61E09A
:102720000E94751388E28A95F1F78AEE0E946B1376
:1027300080FDFBCF82ED60E00E94751389ED0E9461
:102740006B1390E008950F931F93982F162F072F68
:1027500084ED692F0E94751386ED612F0E94751319
:1027600087ED602F0E94751318E203C0812F8A95B0
:10277000F1F78AEE0E946B1380FDF8CF1F910F9145
:102780000895682F677085E70E9475130895CF93A9
:10279000DF93EC01229A2A9A84B1886284B9249A40
:1027A0002B9A2D9A80E58CBD8DB581608DBD2A98C0
:1027B0008FEF8EBD0DB407FEFDCF8FEF8EBD0DB434
:1027C00007FEFDCF2A9A80E090E00197F1F7109282
:1027D0002D0410922C0488E060E00E94751389E0BB
:1027E00060E00E9475138CE060E00E9475138DE03C
:1027F00060E00E9475138AE06EEF0E9475138BE013
:1028000069E10E94751384E06FEF0E94751385E003
:1028100069E10E94751386E06FEF0E94751387E0EF
:102820006FE10E94751388E360EB0E94751388E2E4
:102830006FE30E94751389E260E30E94751380E3E1
:1028400069EF0E94751381E367EF0E94751380ECB6
:102850006DE00E94751381EC60E00E9475132A9868
:1028600082E88EBD0DB407FEFDCF82E38EBD0DB4B0
:1028700007FEFDCF2A9A86EC62E10E94751387EC71
:102880006CE00E94751384EC62E10E9475138AEC7F
:102890006CED0E9475138BEC65E00E94751384EE5D
:1028A00068810E94751385EE69810E94751382EE1E
:1028B0006A810E94751383EE6B810E94751380EE0E
:1028C0006C810E94751381EE6D810E94751380E109
:1028D00060E071E00E94A3138FE10E9440132A98E8
:1028E0008BE98EBD0DB407FEFDCF80EC8EBD0DB41F
:1028F00007FEFDCF2A9A2A988FE98EBD0DB407FEF8
:10290000FDCF84E08EBD0DB407FEFDCF2A9ADF9186
:10291000CF91089582E70E946B13863008F08F5F95
:10292000089581E10E948A1320E0892B09F021E0BB
:10293000822F0895A0E0B0E0E0EAF4E10C948D1C51
:10294000EC018B013FE9D32E20E8F22E9FEBE92E1C
:1029500019C08CE10E946B1381FF14C02A98DEBC61
:102960000DB407FEFDCFFEBC0DB407FEFDCF2A9AC5
:102970002A98EEBC0DB407FEFDCFFEBC0DB407FED9
:10298000FDCF2A9A80E06FE10E94ED1283FDE1CF36
:1029900082E06FEF0E94751383E069E10E94751376
:1029A000CE018150682F86E00E9475139E01215050
:1029B000364E87E0632F0E9475132A988AE78EBDF2
:1029C0000DB407FEFDCF1EBC0DB407FEFDCF2A9A45
:1029D0002A988AE78EBD0DB407FEFDCF09C0F80125
:1029E00080818EBD0DB407FEFDCF21970F5F1F4F75
:1029F0002097A9F72A9A2A988FE98EBD0DB407FE71
:102A0000FDCF88E08EBD0DB407FEFDCF2A9ACDB76D
:102A1000DEB7E7E00C94A91C89E30E946B138111D7
:102A200081E00895A0E0B0E0E8E1F5E10C94881CB5
:102A30005C014B0189E30E946B13882319F4C0E009
:102A4000D0E077C000912C0410912D0480E0602F1D
:102A50000E947513012F110F110B81E0602F0E944E
:102A600075138AE360E00E94ED12182F8AE360E09C
:102A70000E94ED12382F20E0E12EFF24E22AF32AF3
:102A8000F0922D04E0922C048AE360E00E94ED12A3
:102A9000C82E8AE360E00E94ED12D82E8AE360E03F
:102AA0000E94ED12082F10E08AE360E00E94ED1210
:102AB000382F20E0202B312B27FD03C0C0E0D0E0D1
:102AC00011C0CC2DD0E09D2D80E0C82BD92BC501A5
:102AD000019724978C179D0708F4EC01CE01B401EF
:102AE0000E940F1380E0E8168AE1F8063CF08CE0C3
:102AF0006EEF0E9475138DE069E10DC06E2D61507F
:102B00008CE00E9475130894E108F1086F2D772777
:102B100067FD7A958DE00E9475132A988EE98EBD27
:102B20000DB407FEFDCF80E48EBD0DB407FEFDCFD2
:102B30002A9ACE01CDB7DEB7ECE00C94A41CCF935B
:102B4000DF93DC01EB01722F632F822F932F9C0107
:102B5000F90150E016C08081981771F43196808198
:102B6000882371F411968C918D3331F4872F962F31
:102B70009C01F90151E004C0872F962F9C01F901B7
:102B800011969C91992339F0903229F09A3019F0DE
:102B9000552309F304C0513011F030E018C06A2FFA
:102BA00050E04150504002C0299311963A2F361BF5
:102BB0002C91222359F0203249F02A3039F0263264
:102BC00029F0832F90E08417950774F31882832FE0
:102BD000DF91CF910895982F80538A3068F0815308
:102BE000863010F4865F0895892F8154863010F066
:102BF00080E00895892F87530895CF93DF93DC01F8
:102C0000EC0136C08B3211F480E230C0853271F5B0
:102C1000FD013196DF0111969081392F30533A3002
:102C200070F0892F8156863010F4375208C0892FF2
:102C30008154863010F030E002C0392F37532181A3
:102C4000922F90539A3070F0822F8156863010F474
:102C5000975208C0822F8154863010F090E002C055
:102C6000922F9753832F8295807F892B899311967A
:102C70008C91882339F61882DF91CF910895A0E0D6
:102C8000B0E0E5E4F6E10C948B1C7C01B42EC22E7E
:102C9000D02EEB0100E010E017C0B701610F711DED
:102CA000888190E04D2D50E00E94E51C01C0192F55
:102CB000F701E10FF11D8081912F9F5F8823B9F704
:102CC000C082192F0F5F21960B1538F31150E10EBA
:102CD000F11CF7011082CDB7DEB7E9E00C94A71C18
:102CE000EF92FF921F93CF93DF937C01EB0180E083
:102CF00090E0F701E80FF91F1082019684309105EA
:102D0000C1F720E030E010E019C02115310541F491
:102D1000842F992787FD9095C0970A9708F49E0104
:102D20004E3259F41882C9010E94B91CF701E10F13
:102D3000F11D80831F5F20E030E02196488144230D
:102D400011F0143010F31882133011F081E006C036
:102D5000C9010E94B91CF701838380E0DF91CF9104
:102D60001F91FF90EF900895282F98E038E1862F6B
:102D7000822780FD02C0669503C063276695606860
:102D8000915011F02695F3CF862F0895282F98E0C3
:102D900080E0880F20FD8160915011F02695F9CFD9
:102DA00008950F931F93CF93DF93182F2AB1A62F67
:102DB000B0E0FD01E55AFE4F81E090E0008002C0E6
:102DC000880F991F0A94E2F7382F282B2AB960E858
:102DD00040E050E0FD01E15AFE4FC1E0D0E076E076
:102DE0000FE0862F812359F02BB1CE01008002C065
:102DF000880F991F0A94E2F7282B2BB90BC02BB12F
:102E0000CE01008002C0880F991F0A94E2F78095D6
:102E100082238BB9872F8A95F1F7289A802F8A957C
:102E2000F1F72898872F8A95F1F766954F5F5F4FE6
:102E300048305105B1F68AB1309538233AB92BB1F3
:102E4000A95ABE4F3C9181E090E0032E02C0880F4A
:102E5000991F0A94E2F7282B2BB9289A8FE08A95BC
:102E6000F1F789B196E09A95F1F7289890E002C0C1
:102E7000959587953A95E2F78170DF91CF911F91F3
:102E80000F910895FF920F931F93F82E2AB170E0CF
:102E9000FB01E55AFE4F41E050E0CA01008002C04C
:102EA000880F991F0A94E2F7A82F182F1095212355
:102EB0002AB98BB1FB01E95AFE4F008002C0440FD2
:102EC000551F0A94E2F7B42F842B8BB986E08A95BC
:102ED000F1F7E0E800E020E030E0F6E0289A8F2FFC
:102EE0008A95F1F789B190E084239523892B09F025
:102EF0000E2B28988F2F8A95F1F7E6952F5F3F4F7D
:102F00002830310559F78AB1A82BAAB9FB01E15A3B
:102F1000FE4FFF2069F02BB181E090E0008002C0FD
:102F2000880F991F0A94E2F7809582238BB90BC012
:102F30002BB181E090E0008002C0880F991F0A94B5
:102F4000E2F7282B2BB9289A8FE08A95F1F7289879
:102F500086E08A95F1F78AB118231AB98BB1B82B9C
:102F6000BBB9802F1F910F91FF9008950F931F936E
:102F7000209A28989AB1082F10E0F801E55AFE4FE0
:102F8000A1E0B0E0AD01008002C0440F551F0A94DB
:102F9000E2F7942B9AB98BB1F801E15AFE4F9D01EB
:102FA000008002C0220F331F0A94E2F7822B8BB9F4
:102FB00066E0862F8A95F1F7289A862F8A95F1F791
:102FC0009BB1822F809589238BB9862F8A95F1F743
:102FD00028988FE08A95F1F7289A862F8A95F1F73D
:102FE0008BB1282B2BB9862F8A95F1F728986A95F3
:102FF000F1F78AB1409548234AB98BB1095A1E4F5F
:10300000F801008002C0AA0FBB1F0A94E2F78A2BC6
:103010008BB91F910F910895582F209A28984AB183
:10302000E82FF0E0DF01A55ABE4F21E030E0C901F2
:103030000C9002C0880F991F0A94E2F7482B4AB9F6
:103040008BB1E15AFE4F008002C0220F331F0A9459
:10305000E2F7822B8BB986E08A95F1F790E02FE0BA
:10306000289A822F8A95F1F72898822F8A95F1F76E
:103070009F5F9930A9F7852F0E94B61708951F9377
:10308000182F0E940C188EE1612F0E94D1161F91FB
:1030900008950F931F93082F162F862F0E94B6179F
:1030A000E12FF0E0E25DFB4F0083802F612F0E9453
:1030B000D116811181E01F910F91089529B130E05F
:1030C000E7E5F1E0E80FF11D008002C03595279596
:1030D0000A94E2F72095822F81700895FF920F9352
:1030E0001F93CF93DF93EC01062FE62FF0E0E25D14
:1030F000FB4FE08190E088E0990FE0FD9160815006
:1031000011F0E695F9CF10E028E038E1892F81270A
:1031100080FD02C0169503C0132716951068215034
:1031200011F09695F3CF81E0602F0E944217F82EA0
:10313000282F90E088E0990F20FD9160815011F0D8
:103140002695F9CF28E038E1892F812780FD02C03C
:10315000169503C0132716951068215011F0969507
:10316000F3CF81E0602F0E944217482F282F30E0D4
:103170009F2D80E0282B392B3983288390E088E02D
:10318000990F40FD9160815011F04695F9CF28E0EC
:1031900038E1892F812780FD02C0169503C01327CF
:1031A00016951068215011F09695F3CF80E0602FAE
:1031B0000E944217181711F480E001C082E0CDB7D9
:1031C000DEB7E5E00C94AB1C6AE070E00E945B1C8B
:1031D0009B012D583140C90108959C0146E0803B78
:1031E000940778F484E290E0AC01249FC001259F0D
:1031F000900D349F900D11248050984066E670E049
:103200000EC0220F331FC90143E0880F991F4A9552
:10321000E1F7821B930B8256994E63E370E00E94A4
:103220005B1CCB0105966AE070E00E945B1CCB0141
:103230006336710510F084E690E008950F931F93B4
:103240008B010E94ED18282F30E023503040C80138
:1032500060E570E00E946F1C822F860F1F910F9116
:103260000895482F813019F460E070E04CC0E82FD9
:10327000F0E0883058F431968BE090E0E89FB001A0
:10328000E99F700DF89F700D11243DC08CE29CEFFA
:10329000BF010E946F1CCB018C529C4F6AE070E012
:1032A0000E946F1C9B014F3188F483E190E0AC01D8
:1032B000E49FC001E59F900DF49F900D11246AE0FA
:1032C00070E00E946F1C6450704016C083E490E070
:1032D000BC01E69FC001E79F900DF69F900D112461
:1032E00064E670E00E946F1C44534D3118F4665D33
:1032F0007F4F02C0695D7F4F620F731F693C71058C
:1033000014F068EC70E0CB0108950F931F938B01CC
:103310000E94311924E630E0AC01429FC001439F76
:10332000900D529F900D112480529E446BE270E0EC
:103330000E946F1CFB01C8016AE070E00E946F1CD4
:1033400081E793E09C01629FC001639F900D729F93
:10335000900D11246D507F4F0E946F1C9B01220F16
:10336000331F2E0F3F1F62EE76E0621B730B86EF5A
:103370009EE50E946F1C629FA001639F500D729F8B
:10338000500D112457FF03C0CA01C39702C0CA01E0
:10339000C3966AE070E00E946F1CCB011F910F91F1
:1033A0000895DC0120E040E050E098E115C0FD0107
:1033B000E40FF51FE08138E08E2F8227F82FF1709F
:1033C00080FD29272695F13009F42068315011F04D
:1033D000E695F2CF4F5F5F4F4617570741F7822FB1
:1033E000089522E004C0922F9A95F1F78150882326
:1033F000D1F7089589B190E026E0969587952A95B2
:10340000E1F7817008955E98569A80EF22E0922F3E
:103410009A95F1F78150D9F780EF22E0922F9A9593
:10342000F1F78150D9F756985E9A82E422E0922F04
:103430009A95F1F78150D9F789B120EF42E0342F06
:103440003A95F1F72150D9F72EEA42E0342F3A9518
:10345000F1F72150D9F74E9902C081E0089590E02C
:1034600036E0969587953A95E1F7817008955E98D4
:10347000569A92E0292F2A95F1F79A95F1F7882329
:1034800011F056985E9A8EE022E0922F9A95F1F70D
:103490008150D9F789B12DE292E0392F3A95F1F7B1
:1034A0002150D9F756985E9A90E046E09695879518
:1034B0004A95E1F7817008950F931F93182F08E044
:1034C000812F81700E94371A169581111068015062
:1034D000B9F7812F1F910F9108958FEF0E945C1A09
:1034E0000895A0E0B0E0E7E7FAE10C948D1CE82E27
:1034F000EB010E94031A8823A1F580EF0E945C1A59
:10350000FF2480E4182F68EFD62ED80E81E00E94A9
:10351000371A082F81E00E94371A882329F00023E8
:1035200071F05EEFF52E1FC0002349F41E1528F040
:10353000888180FF04C0E11611F0F12E01E0802F98
:103540000E94371A888186958883002311F080684D
:10355000888311501D15D1F6112329F02196812F52
:10356000D1CFFF24FA948F2DCDB7DEB7E7E00C94CE
:10357000A91C0F931F93CF93DF93082FEB010E9499
:10358000031A209751F085E50E945C1A18E0899192
:103590000E945C1A1150D9F703C08CEC0E945C1A8F
:1035A000802F0E945C1ADF91CF911F910F91089597
:1035B000FF920F931F93CF93DF93F82EFB01DA0155
:1035C000E9018081482F50E0918180E0482B592B00
:1035D00080E1F81671F4CA018E7F33E0880F991FDD
:1035E0003A95E1F726814CE050E0421B5109480F23
:1035F000591F57FF06C081E08C93509541955F4F4E
:1036000001C01C9288E2F81691F48481682F70E062
:10361000CB01807690708036910549F066FF02C03C
:103620004E7F05C065FF02C04C7F01C0487FCA01C4
:1036300024E0969587952A95E1F78883842F8F70EB
:10364000F8018083CDB7DEB7E5E00C94AB1C96E0C3
:10365000899F90011124922F9B5F8D3008F09D5F10
:10366000892F6AE00E944F1C0895CF93DF93EC01ED
:103670000E94031A0E94FA19882311F482E005C0FF
:1036800084E4BE010E94B91A80E0DF91CF910895D1
:103690000F931F93CF93DF93EC018B010E94031ACA
:1036A0000E94FA19882311F481E011C08EEBBE014B
:1036B0000E94B91AC0E0D0E00E946D1AF801EC0F28
:1036C000FD1F80832196C930D105B1F780E0DF91DD
:1036D000CF911F910F910895A9E0B0E0E2E7FBE1DF
:1036E0000C94861C6C015B014A0139010E94031A8B
:1036F0008EEBB6010E94B91A8E010F5F1F4F4AE090
:10370000E42EF12CEC0EFD1E0E946D1AF80181933F
:103710008F01EE15FF05C1F77E010894E11CF11C35
:10372000C70169E070E00E94D119882311F083E09D
:1037300009C0F6018081B701A501940183010E94AF
:10374000D81A80E02996EEE00C94A21CEF92FF922A
:103750001F93CF93DF93EC017B0114E18881B701C4
:103760000E94711A888381508D3F50F4F701808147
:10377000883231F0803121F0115081F78EEF88834B
:10378000DF91CF911F91FF90EF900895AAE0B0E0F4
:10379000ECECFBE10C94881C5C016A01CA0145EC6D
:1037A0005CE00E94B8107C01F501808190E08E0100
:1037B0000F5F1F4FB80140E150E00E94E51CC601B9
:1037C000B701A8010E94CC12BC01F50180818031B3
:1037D00021F4C6014FEB5CE009C0883221F4C60138
:1037E00049EB5CE003C0C60143EB5CE00E94B8100B
:1037F000BC01C6014BEA5CE00E94B8107C01F501F7
:10380000878190E08E010F5F1F4FB80140E150E0CB
:103810000E94E51CC601B701A8010E94CC128C01D0
:10382000C50168E070E00E94D119882329F0C60123
:10383000B80142EA5CE004C0C601B80149E95CE0B5
:103840000E94B810BC01C60144E95CE00E94B810B7
:103850007C0101E010E04E010894811C911C06C01F
:10386000C60142E95CE00E94B8107C01F501E00F5E
:10387000F11F808190E0B40140E150E00E94E51C1E
:10388000C601B701A4010E94CC12BC010F5F1F4FFB
:103890000730110529F72A96ECE00C94A41C991B1B
:1038A00079E004C0991F961708F0961B881F7A9537
:1038B000C9F780950895AA1BBB1B51E107C0AA1F39
:1038C000BB1FA617B70710F0A61BB70B881F991FC1
:1038D0005A95A9F780959095BC01CD01089597FB65
:1038E000092E07260AD077FD04D0E5DF06D0002098
:1038F0001AF4709561957F4F0895F6F7909581952C
:103900009F4F08952F923F924F925F926F927F92B6
:103910008F929F92AF92BF92CF92DF92EF92FF92DF
:103920000F931F93CF93DF93CDB7DEB7CA1BDB0B8B
:103930000FB6F894DEBF0FBECDBF09942A88398830
:1039400048885F846E847D848C849B84AA84B98437
:10395000C884DF80EE80FD800C811B81AA81B98143
:10396000CE0FD11D0FB6F894DEBF0FBECDBFED0157
:103970000895FC0188279927E89421912032E9F3E2
:10398000293010F02E30C8F32B3241F02D3239F4AB
:10399000689404C00E94061D820F911D219120533E
:1039A0002A30C0F31EF4909581959F4F0895FB0136
:1039B000DC014150504030F08D910190801919F494
:1039C0000020B9F7881B990B0895FB019F01E8942B
:1039D0004230C4F04532B4F44A3029F497FB1EF467
:1039E000909581959F4F642F77270E945B1C805D87
:1039F0008A330CF0895D8193CB010097A1F716F40F
:103A00005DE251931082C9010C94241D7AE0979FC6
:103A1000902D879F802D910D11240895F999FECF47
:103A200092BD81BDF89A992780B50895262FF999FE
:103A3000FECF1FBA92BD81BD20BD0FB6F894FA9A91
:103A4000F99A0FBE01960895DC01FC01672F719170
:103A50007723E1F7329704C07C916D937083629174
:0C3A6000AE17BF07C8F30895F894FFCF1D
:103A6C0066617669636F6E2E69636F0073630070B5
:103A7C007700735F626F7400735F746F700073779D
:103A8C000070312E6A730070322E6A730067006307
:103A9C000072690067646174002E6A73006E0064C2
:103AAC0000545558100029C0A8B2781876455541D5
:103ABC0034476F5000500A00010405000104050052
:043ACC0001040500EC
:00000001FF
