:100000000C945F060C947C060C947C060C947C0685
:100010000C947C060C947C060C947C060C94900644
:100020000C947C060C947C060C947C060C947C0648
:100030000C947C060C947C060C947C060C947C0638
:100040000C947C060C947C060C947C060C947C0628
:100050000C947C060C947C060C947C060C947C0618
:100060000C947C060C947C06485454502F312E304E
:1000700020343034204E6F7420466F756E640D0A44
:10008000436F6E74656E742D547970653A20746593
:1000900078742F68746D6C0D0A0D0A3C68313E341B
:1000A0003034204E6F7420466F756E643C2F68317B
:1000B0003E00485454502F312E30203430312055DA
:1000C0006E617574686F72697A65640D0A436F6E4C
:1000D00074656E742D547970653A20746578742F48
:1000E00068746D6C0D0A0D0A3C68313E3430312065
:1000F000556E617574686F72697A65643C2F6831FA
:100100003E3C6120687265663D2F3E636F6E746988
:100110006E75653C2F613E0A003C68313E333031DC
:10012000204D6F766564205065726D616E656E74EA
:100130006C793C2F68313E0A000D0A0D0A436F6E40
:1001400074656E742D547970653A20746578742FD7
:1001500068746D6C0D0A0D0A00687474703A2F2F64
:1001600074757867726170686963732E6F72672F38
:1001700069636F2F746865726D2E69636F004854F0
:1001800054502F312E3020333031204D6F7665643E
:10019000205065726D616E656E746C790D0A4C6FDE
:1001A000636174696F6E3A20000A3C2F7072653E7D
:1001B0003C68723E286329726F62696E636C61727B
:1001C0006B652E6E65740A000A006C696D69745463
:1001D000656D70426F74746F6D3A20000A006C692F
:1001E0006D697454656D70546F703A20000A005345
:1001F000776974636853746174653A20006473317D
:1002000038783230206572726F720A0027465D0AB4
:10021000002743205B0020203A200074656D702089
:1002200053006E6F2073656E736F720A003C623EFE
:10023000445331385332302053656E736F72733CC0
:100240002F623E0A0027465D0A0A002743205B0012
:1002500064657720706F696E743A2000250A006823
:10026000756D6964697479203A20000A0068756DBB
:1002700069206C696E203A20000A0027465D00273D
:1002800043205B0074656D702E202020203A2000F2
:100290000A00200044454255473A20726177207495
:1002A000656D702068756D693A000A0074696D6546
:1002B0006F7574206572726F720A0073656E736F6A
:1002C0007220637263206572726F720A006E6F2013
:1002D00073656E736F720A003C623E496E646F6FA5
:1002E000722053485431312053656E736F723C2F26
:1002F000623E0A00776169742E2E2E0A003C7072ED
:10030000653E003C6120687265663D2E2F3E5B7243
:100310006566726573685D3C2F613E0A3C68323EDB
:1003200043757272656E7420636F6E646974696F71
:100330006E733C2F68323E003C6120687265663DFA
:100340002E2F3F73773D313E5B7377697463685D31
:100350003C2F613E203C6120687265663D2E2F3F38
:10036000633D313E5B6366675D3C2F613E203C61CF
:1003700020687265663D2E2F3F673D303E5B677299
:100380006170685D3C2F613E2000647728223C2F1D
:1003900074643E3C2F74723E3C2F7461626C653E07
:1003A00022293B0A3C2F7363726970743E0A3C62D7
:1003B000723E3C68723E0A00627074286764617421
:1003C000322C22663732222C322C224F7574205464
:1003D000656D7022293B0A00647728223C2F7464E3
:1003E0003E3C74643E22293B0A00627074286764B4
:1003F0006174312C22373863222C312E352C22495E
:100400006E2048756D6964697479202522293B0A3C
:1004100000647728223C2F74643E3C74643E222999
:100420003B0A006270742867646174302C22656234
:1004300030222C322C22496E2054656D7022293BCB
:100440000A00647728223C7461626C6520626F72D6
:100450006465723D313E3C74723E3C74643E2229B8
:100460003B0A003C7363726970743E0A003C612071
:10047000687265663D6A6176617363726970743A29
:10048000736376732867646174302C6764617431B8
:100490002C6764617432293E5B4353562064617457
:1004A000615D3C2F613E0A003C6120687265663DDB
:1004B0002E2F3E5B686F6D655D3C2F613E20003CDA
:1004C000736372697074207372633D676461743220
:1004D0002E6A733E3C2F7363726970743E0A003C4F
:1004E000736372697074207372633D676461743101
:1004F0002E6A733E3C2F7363726970743E003C73C6
:100500006372697074207372633D67646174302E26
:100510006A733E3C2F7363726970743E003C736370
:1005200072697074207372633D70312E6A733E3C41
:100530002F7363726970743E3C73637269707420C8
:100540007372633D70322E6A733E3C2F736372691F
:1005500070743E0A00303B3C2F7363726970743EC6
:100560000A003B76617220643D003C7363726970DF
:10057000743E76617220743D6E65772044617465C7
:1005800028293B766172206D3D00293B0A002C0032
:1005900030293B0A003D417272617928006764612D
:1005A000740066756E6374696F6E20706261722884
:1005B000772C632C74297B696628773C35297B77F7
:1005C0003D353B7D647728223C70207374796C65DF
:1005D0003D5C2277696474683A222B772B2270780D
:1005E0003B6261636B67726F756E642D636F6C6FD6
:1005F000723A23222B632B223B6D617267696E3A3C
:100600003270783B626F726465723A317078202381
:1006100039393920736F6C69643B77686974652D6B
:1006200073706163653A7072653B5C223E222B7485
:100630002B223C2F703E22293B7D0A66756E637427
:10064000696F6E206270742867642C632C612C685B
:10065000297B647728223C68323E222B682B223C7F
:100660002F68323E22293B76617220692C6E2C6DF8
:10067000732C70743B6D733D742E67657454696D93
:100680006528293B766172206C3D6E657720446158
:10069000746528293B666F7228693D303B693C6769
:1006A000642E6C656E6774683B692B2B297B207008
:1006B000743D6D732D28286D2B642A69292A3630E4
:1006C0002A31303030293B206C2E73657454696DAB
:1006D00065287074293B206E3D7061727365496EA8
:1006E000742867645B695D293B2070626172282809
:1006F000612A6E2B313230292C632C706164286C96
:100700002E676574446174652829292B222D222BBC
:10071000706164286C2E676574486F757273282940
:10072000292B223A222B706164286C2E6765744D48
:10073000696E757465732829292B223D222B6E2939
:100740003B7D0A647728223C62723E545A206469D9
:10075000666620474D543A20222B742E67657454E8
:10076000696D657A6F6E654F666673657428292FAB
:1007700036302B22682E20466F726D61743A2064E9
:1007800061792D68683A6D6D3D76616C3C62723EB0
:1007900022293B7D0A0066756E6374696F6E207056
:1007A0006164286E297B76617220733D6E2E746FB2
:1007B000537472696E67283130293B69662028734B
:1007C0002E6C656E6774683C32297B726574757235
:1007D0006E282230222B73297D72657475726E2803
:1007E00073293B7D0A66756E6374696F6E2064774A
:1007F0002873297B646F63756D656E742E777269DB
:1008000074656C6E2873297D0A66756E6374696FF2
:100810006E20736376732867312C67322C67332917
:100820007B646F63756D656E742E6F70656E2829BD
:100830003B647728223C7072653E23436F70792FAA
:100840007061737465206173207478742066696CBC
:10085000653A22293B6477282223646174653B69E9
:100860005F74656D703B695F68756D3B6F5F746544
:100870006D703B22293B76617220692C6D732C7060
:10088000743B6D733D742E67657454696D652829DA
:100890003B766172206C3D6E6577204461746528FB
:1008A000293B666F7228693D303B693C67312E6C8D
:1008B000656E6774683B692B2B297B70743D6D7383
:1008C0002D28286D2B642A69292A36302A313030A8
:1008D00030293B6C2E73657454696D6528707429DA
:1008E0003B6477286C2E67657446756C6C5965613E
:1008F0007228292B222D222B706164286C2E6765AB
:10090000744D6F6E74682829292B222D222B70615B
:1009100064286C2E676574446174652829292B222C
:1009200020222B706164286C2E676574486F757285
:10093000732829292B223A222B706164286C2E6798
:1009400065744D696E757465732829292B223B22C5
:100950002B67315B695D2B223B222B67325B695D24
:100960002B223B222B67335B695D2B223B22293BE9
:100970007D646F63756D656E742E636C6F7365282F
:10098000293B7D0A003C2F7072653E3C68723E0A2E
:10099000003C696E70757420747970653D73756282
:1009A0006D69742076616C75653D22737769746337
:1009B00068206F6E223E3C2F666F726D3E0A0031DA
:1009C0003E0A70617373773A203C696E70757420CB
:1009D000747970653D70617373776F7264207369A9
:1009E0007A653D3130206E616D653D70773E003C2B
:1009F000696E70757420747970653D7375626D6988
:100A0000742076616C75653D227377697463682024
:100A10006F6666223E3C2F666F726D3E0A00303E66
:100A20000A70617373773A203C696E707574207434
:100A30007970653D70617373776F72642073697A42
:100A4000653D3130206E616D653D70773E003C69DB
:100A50006E70757420747970653D68696464656E44
:100A6000206E616D653D73632076616C75653D0038
:100A70000A3C666F726D20616374696F6E3D2F2052
:100A80006D6574686F643D6765743E004F4646004F
:100A90003C666F6E7420636F6C6F723D233030461E
:100AA0004630303E4F4E3C2F666F6E743E003C68C1
:100AB000323E5377697463683C2F68323E0A3C705B
:100AC00072653E73746174653A20003C61206872FF
:100AD00065663D2E2F3E5B686F6D655D3C2F613E08
:100AE000203C6120687265663D2E2F3F73773D3153
:100AF0003E5B726566726573685D3C2F613E0A00FD
:100B00003C2F7072653E3C68723E0A003C696E7014
:100B1000757420747970653D7375626D69742076A3
:100B2000616C75653D226368616E6765223E3C2F8E
:100B3000666F726D3E0A003E5B2A3130206D696E31
:100B40002C20363D31685D0A70617373772E20204A
:100B50003A3C696E70757420747970653D7061738C
:100B600073776F72642073697A653D3130206E61EE
:100B70006D653D70773E0A00696E74657276616CD2
:100B80003A3C696E70757420747970653D7465784F
:100B900074206E616D653D72692073697A653D33BD
:100BA0002076616C75653D000A3C666F726D206150
:100BB0006374696F6E3D2F206D6574686F643D6767
:100BC00065743E003C68323E477261706820726511
:100BD000636F7264696E6720636F6E6669673C2F2E
:100BE00068323E0A3C7072653E003C612068726566
:100BF000663D2E2F3E5B686F6D655D3C2F613E0A42
:100C000000485454502F312E3020323030204F4B7A
:100C10000D0A436F6E74656E742D547970653A20B9
:100C20006170706C69636174696F6E2F782D6A6191
:100C300076617363726970740D0A0D0A004854542A
:100C4000502F312E3020323030204F4B0D0A436F61
:100C50006E74656E742D547970653A20746578747D
:100C60002F68746D6C0D0A507261676D613A206E69
:100C70006F2D63616368650D0A0D0A0000010800AD
:100C8000060400013A0020534E3D00204352432009
:100C90004F4B2000204352432045727200204352A4
:100CA000433D30780028203F202900283138422950
:100CB0000028313853290046433D30780000112484
:100CC0001FBECFEFD8E0DEBFCDBF11E0A0E0B1E0A6
:100CD000E0E1FAE302C005900D92A436B107D9F71E
:100CE00014E0A4E6B1E001C01D92A733B107E1F71B
:100CF0000E94DE0D0C94061D0C9400009C01220F36
:100D0000331FC90143E0880F991F4A95E1F7820F0D
:100D1000931F64E670E00E94411C862F805E089558
:100D20001F920F920FB60F9211248F9380916F0133
:100D30008F5F80936F0180916F01823360F08091AB
:100D400069018F5F80936901809168018F5F809353
:100D5000680110926F018F910F900FBE0F901F903E
:100D6000189510926F01E4E6F0E080818F7B80831C
:100D700092E0909370001092B20084EF8093B300E1
:100D80009093B00087E08093B100089597FF02C070
:100D9000059701C005966AE070E00E94411C862F0D
:100DA000089590E0889628E4629FB0011124860F90
:100DB000971F0E94E01C089580E791E060E070E0DA
:100DC00041E05CE00E948A1008950F931F9300E7B2
:100DD00011E0C80160E070E041E05CE00E948A1030
:100DE000BC01C80142EA55E00E948A101F910F9190
:100DF00008950F931F9300E711E0C80160E070E0D1
:100E000041E05CE00E948A10BC01C80146E957E05D
:100E10000E948A101F910F91089580E791E060E091
:100E200070E04DE35CE00E948A1008951F93182F34
:100E300080E791E060E070E04DE35CE00E948A10A2
:100E4000BC0180E791E04BEC5AE00E948A10BC01A3
:100E500080E791E04EEA5AE00E948A10BC0111231B
:100E600029F080E791E040E95AE004C080E791E092
:100E70004CE85AE00E948A10BC0180E791E040E70C
:100E80005AE00E948A10BC0180E791E04EE45AE0EB
:100E90000E948A10BC01112361F080E791E04EE1CD
:100EA0005AE00E948A10BC0180E791E04FEE59E0C1
:100EB0000BC080E791E04FEB59E00E948A10BC0123
:100EC00080E791E041E959E00E948A10BC0180E787
:100ED00091E045E859E00E948A10909307048093BE
:100EE00006041F910895CF92DF92FF920F931F93F4
:100EF000DF93CF930F92CDB7DEB78FEF898308E0F2
:100F000014E0FF246E010894C11CD11C0CC0C60162
:100F1000B8010E94781B89818F3F61F0085F1F4FE5
:100F20008E3F41F0F3948981882319F082E0F8160E
:100F300071F78F2D0F90CF91DF911F910F91FF903F
:100F4000DF90CF90089510926E0180E090E00E94B3
:100F5000071B882319F081E080936E010895A3E0B8
:100F6000B0E0E5EBF7E00C94581CDD24B2E06B2E0A
:100F7000712C6C0E7D1EA3E08A2E912C8C0E9D1E72
:100F80005E010894A11CB11CFAE0CF2E37C0C70146
:100F9000E3E0880F991FEA95E1F7885F9B4FB50161
:100FA000A30194010E943E1BF701EE0FFF1F88234F
:100FB00001F50A810C9D8001112468E1E62E64E0B0
:100FC000F62EEE0EFF1EF701118300838B810E9427
:100FD000F91A9801280F311DF70131832083898187
:100FE000882359F088279927821B930B918380834C
:100FF00004C0E85EFB4F11821082D394ED2CFF24D5
:1010000080916701992787FD9095E816F9060CF401
:10101000BECF2396EEE00C94741C382F862F90E000
:10102000889628E4429FA0011124840F951F632F06
:101030000E94E81C0895CF93DF9380916A019091FC
:101040006B01892B09F045C080913404882359F045
:1010500080916C0190E080599F4F60E00E94E81CF5
:10106000C0E0D0E016C080913204909133040E9419
:10107000B618EC018091350490913604BE010E94AF
:10108000F018682F80916C0190E080599F4F0E946A
:10109000E81CCE010E94C606682F80916C0190E08A
:1010A00088960E94E81C80911804909119040E946F
:1010B000C606682F80916C0190E088549F4F0E9473
:1010C000E81C80916C018F5F68E40E94211C909362
:1010D0006C0180916D01813138F0809169018F5FE1
:1010E0008093690110926D0120916A0130916B012A
:1010F000C90165E070E00E942D1C892B51F480919C
:1011000069018F5F8093690180916D018F5F80938A
:101110006D01C901019690936B0180936A01209142
:101120004B014AE0249F900111248217930721F478
:1011300010926B0110926A01DF91CF910895CF93C5
:10114000DF93C8E2D0E0CE0160E00E94E81CCE014F
:10115000885B9F4F60E00E94E81CCE0180579F4F44
:1011600060E00E94E81C2196C037D10561F7DF914D
:10117000CF910895CF92DF92EF92FF920F931F933A
:101180007C016B01CA0101EF13E0B8014AE050E0B5
:101190000E94B71CC701B601A8010E949E121F91B0
:1011A0000F91FF90EF90DF90CF9008950F931F93D2
:1011B00000E711E0C80160E070E04DE35CE00E94F0
:1011C0008A10BC01C8014AE655E00E948A10BC01A1
:1011D00040916A0150916B01C8010E94BA08BC019C
:1011E000C80142E655E00E948A10BC0140914B01C3
:1011F000C80150E00E94BA08BC01C80145E555E0AD
:101200000E948A10BC01C8014DE155E00E948A107D
:10121000BC01C8014EEF54E00E948A10BC01C80115
:101220004FED54E00E948A10BC01C8014FEB54E01E
:101230000E948A10BC01C80148EA54E00E948A104A
:10124000BC01C8014DE654E00E948A10BC01C801EF
:1012500043E654E00E948A10BC01C80142E454E015
:101260000E948A10BC01C80143E254E00E948A1027
:10127000BC01C80141E154E00E948A10BC01C801D0
:101280004AEE53E00E948A10BC01C80148ED53E0C9
:101290000E948A10BC01C80148EB53E00E948A10EA
:1012A000BC01C8014AE853E00E948A101F910F91C7
:1012B0000895EF92FF920F931F93CF93DF93082F20
:1012C00080E791E060E070E041E05CE00E948A101D
:1012D000BC0110916C0180E791E04DE955E00E945E
:1012E0008A10BC0180E791E0402F50E00E94BA08CC
:1012F000BC0180E791E045E955E00E948A10EC01CD
:10130000F99B06C080E791E0BE0140E955E030C09E
:10131000E12EFF24812F992787FD90958E159F053B
:1013200041F080E791E0BE014EE855E00E948A104E
:10133000EC01115017FD17E4033070F4812F602F7A
:101340000E94D106482F552747FD509580E791E030
:10135000BE010E94BA08EC01812F992787FD909564
:101360008E159F05B9F680E791E0BE014AE855E089
:101370000E948A10CDB7DEB7E6E00C947C1C0F9378
:101380001F9300E711E0C80160E070E04DE35CE00E
:101390000E948A10BC01C8014AEE5BE00E948A10DC
:1013A000BC01C80144EC5BE00E948A10BC01C8018A
:1013B00048EA5BE00E948A10BC01C80148E75BE094
:1013C0000E948A10BC0140914B01C80150E00E946C
:1013D000BA08BC01C80147E35BE00E948A10BC0167
:1013E000C8014CE05BE00E948A10BC01C80140E0EB
:1013F0005BE00E948A101F910F910895EF92FF9277
:101400000F931F93F82EE92E6AE070E00E94411CB2
:10141000CB0101EF13E0B8014AE050E00E94B71C95
:10142000F80101900020E9F78F0101501040015FA1
:101430001340E02FF0E0EF50FC4F8EE280832F2D21
:101440003E2DC90197FF03C0909581959F4F6AE09B
:1014500070E00E94411C602F70E06E507C4F4AE0AB
:1014600050E00E94B71C1F910F91FF90EF900895DC
:10147000A0E0B0E0EEE3FAE00C945F1C80E791E0BE
:1014800060E070E04DE35CE00E948A10BC0180E700
:1014900091E048E353E00E948A10BC0180E791E0AC
:1014A00043E053E00E948A10BC0180E791E04DEFD9
:1014B00052E00E948A10BC0180916401882329F4C3
:1014C00080E791E044EF52E0D0C180E791E048ED41
:1014D00052E00E948A10BC01809134048823E1F01C
:1014E000813029F480E791E04DEC52E00DC082306C
:1014F00029F480E791E04BEB52E006C0833039F4E9
:1015000080E791E04CEA52E00E948A10BC0180E73B
:1015100091E04AEA52E0FBC080E791E044E952E002
:101520000E948A108C01809132049091330461EF03
:1015300073E04AE050E00E94B71C80E791E0B801F8
:1015400041EF53E00E949E12BC0180E791E042E926
:1015500052E00E948A108C018091350490913604EB
:1015600061EF73E04AE050E00E94B71C80E791E031
:10157000B80141EF53E00E949E12BC0180E791E068
:1015800040E952E00E948A10BC0180E791E044E803
:1015900052E00E948A108C018091320490913304B1
:1015A0000E94B6187C010E94FE0980E791E0B80114
:1015B00041EF53E00E949E12BC0180E791E04FE7AB
:1015C00052E00E948A108C01C7010E947E06992772
:1015D00087FD909561EF73E04AE050E00E94B71CF0
:1015E00080E791E0B80141EF53E00E949E12BC01F8
:1015F00080E791E04BE752E00E948A10BC0180E74F
:1016000091E049E752E00E948A10BC0180E791E036
:101610004DE652E00E948A108C0180913504909131
:1016200036040E94BF18992787FD909561EF73E0FB
:101630004AE050E00E94B71C80E791E0B80141EF1A
:1016400053E00E949E12BC0180E791E04BE652E01D
:101650000E948A10BC0180E791E04FE552E00E94B1
:101660008A108C018091350490913604B7010E9454
:10167000F018D82E992787FD909561EF73E04AE026
:1016800050E00E94B71C80E791E0B80141EF53E0C1
:101690000E949E12BC0180E791E04CE552E00E945E
:1016A0008A10BC0180E791E040E552E00E948A1078
:1016B0008C018D2DB7010E9457197C010E94FE09F3
:1016C00080E791E0B80141EF53E00E949E12BC0117
:1016D00080E791E04BE452E00E948A108C01C70140
:1016E0000E947E06992787FD909561EF73E04AE09E
:1016F00050E00E94B71C80E791E0B80141EF53E051
:101700000E949E12BC0180E791E045E452E00E94F5
:101710008A10BC0180E791E04DE252E00E948A10FD
:10172000BC018091670118163CF080E791E042E22D
:1017300052E00E948A10BC0188E1E82E84E0F82E75
:10174000C0E0D0E040C080E791E04BE152E00E9471
:101750008A10BC0180E791E0AE010E94BA08BC018A
:1017600080E791E046E152E00E948A108C01F70187
:10177000808191810E94FE0980E791E0B80141EFEC
:1017800053E00E949E12BC0180E791E041E152E0EB
:101790000E948A108C01F701819191917F010E9432
:1017A0007E06482F552747FD509580E791E0B80108
:1017B0000E94BA08BC0180E791E04CE052E00E9430
:1017C0008A10BC01219680916701C8170CF4BBCF29
:1017D00080916E01813039F480E791E04DEF51E066
:1017E0000E948A10BC0180E791E04FEE51E00E9418
:1017F0008A10BC01409165015091660180E791E03B
:101800000E94BA08BC0180E791E04DEE51E00E94D1
:101810008A10BC0180E791E04EED51E00E948A10F1
:10182000BC0140913D0150913E0180E791E00E9452
:10183000BA08BC0180E791E04CED51E00E948A10AB
:10184000BC0180E791E04AEC51E00E948A10BC01A3
:1018500040913F015091400180E791E00E94BA0819
:10186000BC0180E791E048EC51E00E948A10BC0185
:1018700080E791E049EA51E00E948A10CDB7DEB7D7
:10188000E7E00C947B1CBC01ACE4B1E0FD010190ED
:101890000020E9F73197EA1BFB0BCD01AF010E9455
:1018A000A91C9C0180E0232B09F481E008950F938B
:1018B0001F93CF93DF93EC018881803209F4CCC071
:1018C00080E091E0BE014BE050E00E94A91C00972F
:1018D00051F580E791E060E070E04EE751E00E9452
:1018E0008A10BC01909307048093060480E791E07E
:1018F00049E551E00E948A10BC019093070480934F
:10190000060480E791E049E351E00E948A10BC019F
:10191000909307048093060480E791E049E151E049
:101920000E948A103DC1CE0161EF73E044E12CE0DA
:1019300031E00E947115882301F11091F103CE016D
:1019400061EF73E044E12FE031E00E9471158823DC
:1019500009F42CC181EF93E00E94CF1581EF93E051
:101960000E94430C882309F421C1113311F45F9ABA
:1019700001C05F988BB180787FC0CE0161EF73E0CA
:1019800044E122E131E00E947115882369F181EF81
:1019900093E00E94CF1581EF93E00E948B1C8C0195
:1019A000CE0161EF73E044E12FE031E00E94711558
:1019B000882309F4FBC081EF93E00E94CF1581EFEB
:1019C00093E00E94430C882309F4F0C01093400177
:1019D00000933F018EE090E06AE10E94E81C8FE0F6
:1019E00090E060913F0136C0CE0161EF73E044E1C9
:1019F00028E131E00E947115882381F181EF93E0A5
:101A00000E94CF1581EF93E00E948B1C8C01CE01C8
:101A100061EF73E044E12FE031E00E94711588230B
:101A200009F4C4C081EF93E00E94CF1581EF93E0E9
:101A30000E94430C882309F4B9C010933E0100931F
:101A40003D0180E190E06AE10E94E81C81E190E0C4
:101A500060913D010E94E81C81E0ABC0CE0161EFC6
:101A600073E044E12EE131E00E947115882339F0E2
:101A70008BB1881F8827881F0E94160795C081E2B6
:101A800091E0BE0145E050E00E94A91C009719F4C6
:101A90000E94F90685C087E291E0BE0145E050E072
:101AA0000E94A91C009719F40E94E50679C0CE0196
:101AB00061EF73E044E12DE231E00E94711588236B
:101AC00019F00E94D6086CC0CE0161EF73E044E1CA
:101AD0002FE231E00E947115882319F00E94BF099E
:101AE0005FC0CE0161EF73E044E121E331E00E9489
:101AF0007115882399F11092F50381EF93E00E940C
:101B00008B1C182F833008F413E0CE0161EF73E0D3
:101B100044E12FE031E00E947115882309F446C0AA
:101B200081EF93E00E94CF1581EF93E00E94430C78
:101B30008823E1F10E949F0810934B0110926401E9
:101B400010926B0110926A0182E190E06AE10E94BA
:101B5000E81C83E190E060914B017CCF84E391E04D
:101B6000BE0144E050E00E94A91C009709F5BE01A7
:101B70006B5F7F4F89E391E043E050E00E94A91C36
:101B80000097B1F46C81603311F480E007C06133D9
:101B900011F481E003C0623359F482E00E945909D4
:101BA00090930704809306048AE003C08FEF01C07E
:101BB00080E0DF91CF911F910F910895FF920F93D5
:101BC0001F93CF93DF9380E88093610010926100B0
:101BD00010E0812F8A95F1F781E491E00E9499133A
:101BE00082E00E9493131A95F1F70E94B10678944F
:101BF000219A299A579A5F9884E166E774E00E94D7
:101C0000751381E491E067E471E040E95FE10E94CF
:101C1000940F0E949F0881E0809334040E94730710
:101C20008093670182E190E00E94E01C8A3131F4E8
:101C300083E190E00E94E01C80934B018EE090E0F5
:101C40000E94E01C8A3141F48FE090E00E94E01C89
:101C500080933F011092400180E190E00E94E01CDF
:101C60008A3141F481E190E00E94E01C80933F01C1
:101C70001092400110E0C1E0D0E001E093E0F92EC5
:101C800080E892E060E771E00E94E414BC01909368
:101C900007048093060480E791E00E941B12AC01C8
:101CA000809167018230ECF020911A0430911B047E
:101CB00080913D0190913E018217930734F45F9A21
:101CC000D0936601C09365010CC080913F01909153
:101CD0004001281739072CF45F9810926601109282
:101CE00065014115510509F075C0112341F480913A
:101CF0006801882379F50E94DE17299802C0113007
:101D0000A9F480916801813011F011E023C083E0D3
:101D100060E00E941B18809334040E94A307299A54
:101D200080913404882309F088C002C0123091F4F5
:101D300080E00E943018882311F412E00BC082E387
:101D400094E060E00E94401880933404882309F0F6
:101D500074C013E080916801823091F40E94AF0753
:101D6000123019F4F09234041BC0133049F485E0AA
:101D700060E00E941B1880933404882319F010C07F
:101D8000143079F480E00E943018882311F414E0B4
:101D900008C085E394E060E00E944018809334041A
:101DA00015E080916801833058F0109268018091AD
:101DB0006401882321F40E941B080093640110E051
:101DC000809169018C3308F45BCF109269010E9405
:101DD0001B0856CFFA01F29682E0E038F80718F4B3
:101DE000E059FE4F1082CA018B589E4F0E94570C3B
:101DF0008F3F39F480E791E060E070E042EB50E023
:101E000008C0882349F480E791E060E070E048E68C
:101E100050E00E948A1004C08A3031F00E94380AD3
:101E20009093070480930604609106047091070460
:101E300080E791E00E94141123CF15E08BCFA0E042
:101E4000B0E0E5E2FFE00C945E1C6C01413081F4EF
:101E5000685070407B0100E010E0685F7F4F21E137
:101E600030E040E050E0E20EF31E041F151F15C0E5
:101E7000423021F0EE24FF2487010FC068507040EB
:101E80007B0100E010E0685F7F4F86E090E0A0E01B
:101E9000B0E0E80EF91E0A1F1B1FF601EB0116C089
:101EA000808190E0A0E0B0E0BA2FA92F982F88277A
:101EB000218130E040E050E0822B932BA42BB52B06
:101EC000E80EF91E0A1F1B1F32962297C230D10559
:101ED00038F7FB01EE7FEC0DFD1D60FF15C0808122
:101EE00090E0A0E0B0E0BA2FA92F982F882708C073
:101EF0002FEF3FEF40E050E0E222F32204231523CE
:101F0000E80EF91E0A1F1B1FC801AA27BB2700974E
:101F1000A105B10569F7970120953095C901CDB7A5
:101F2000DEB7E8E00C947A1CCF93DF93EC0150937A
:101F30001C044093550120E030E0F901E95DFB4FBE
:101F4000DB01A20FB31F8C9180832F5F3F4F2430A2
:101F5000310599F720E030E0F901EF5DFB4FDE013C
:101F6000A20FB31F8C9180832F5F3F4F2630310526
:101F700099F7DF91CF910895DC0120E030E0FB017B
:101F8000E20FF31F5A969C915A978081981711F08F
:101F900080E008952F5F3F4F11962430310579F787
:101FA00081E00895FC0169327105B0F084858830C4
:101FB00099F48585863081F4DF019696E7E2F4E0B6
:101FC0009C918081981741F41196319684E0EB3210
:101FD000F807B1F781E0089580E00895FC016A32C6
:101FE0007105D0F084858830B9F485858823A1F403
:101FF0008685853489F4DF01E7E2F4E05E969C9102
:102000005E978081981741F41196319684E0EB3207
:10201000F807A1F781E0089580E00895FC01A1E2AE
:10202000B4E0868180838D918683319684E0A732E7
:10203000B807B9F708950F931F938C01FC01108E18
:10204000118E80E4848B158A868BC8010E9664E11C
:1020500070E040E00E941F0FF801908F818F1F9168
:102060000F910895AC01FC01A7E2B4E0828D868F48
:102070008D91828F319684E0AB32B807B9F7CA01EF
:102080000E941B100895FC01B99694E08081680FAE
:10209000711D84816483442311F0808301C0108208
:1020A00091503197992319F0672F7727EFCF089533
:1020B0000F931F938C01FC0194A182A184A392A38E
:1020C00095A183A185A393A3C8010E944310F801A1
:1020D00012AA13AA80E586A71F910F910895FC010B
:1020E000908980E02189422F50E0482B592B26A56A
:1020F000822F82958F7090E0880F991F880F991F0B
:10210000481B590B4451504057FF02C040E050E07B
:10211000CA0108956A5C7F4FDC01A60FB71F6653A2
:10212000704003C08D936F5F7F4FFA014F5F5F4F29
:1021300084918823B9F7CB010895DA016A5C7F4F57
:10214000FC01E60FF71F66537040922F03C08D917C
:10215000819391509923D9F7CB01820F911D089556
:102160009093200480931F040895EF92FF920F93A1
:102170001F938C017B01CB018896F801908B818B9A
:10218000C8010E941B10F80112AA13AA8CE190E06A
:10219000E80EF91EC8014A96B70142E00E941F0FDF
:1021A000F80192AB83ABC7014A96B8010E946C1448
:1021B0001F910F91FF90EF900895CF93DF93EC0163
:1021C000FC01A1E2B4E0868180838D918683319603
:1021D00084E0A732B807B9F7842F80618FA7443015
:1021E00029F06115710511F461E070E0CE0141E064
:1021F0000E945810188A88E2898BCE010E94321002
:1022000084E088AB19AACE014A966CE170E042E006
:102210000E941F0F9AAB8BAB86E390E0BE010E9439
:102220006C14DF91CF910895EF92FF920F931F935B
:102230008C017B0160911D0470911E0440E00E949E
:10224000DD1089E1F80187A7C801B7010E94B51028
:102250001F910F91FF90EF900895CF93DF93EC01C2
:10226000FC01A1E2B4E0868180838D918683319662
:1022700084E0A732B807B9F7188A8CE2898BCE01BF
:102280000E94321082E18FA7CE0161E070E040E051
:102290000E9458101EA21FA28091560188A719A65D
:1022A0008D5F8093560182E08EAB84E08FAB95E02A
:1022B00098AF19AE80E68EA798AB88E789ABCE01C0
:1022C0004A9660E270E042E00E941F0F9AAB8BAB2F
:1022D0008AE390E0BE010E946C14DF91CF910895D3
:1022E000A0E0B0E0E6E7F1E10C945F1CEC017B01BB
:1022F000D22E132FFC01A1E2B4E0868180838D9160
:102300008683319684E0A732B807B9F7042F4D3D94
:1023100008F00CED188A045E098BCE010E94321081
:102320008AA18CA38BA18DA31AA3DBA21EA20451A8
:102330000FA3085018A619A6DE019A9620E030E0F7
:1023400007C0F701E20FF31F80818D932F5F3F4F8E
:102350002017B8F310E0005F1F4FCE014A96B80176
:1023600041E00E941F0F98A789A7C8014A96BE01A5
:102370000E946C14CDB7DEB7E7E00C947B1C0F9382
:102380001F93CF93DF93EC018B01FC01A1E2B4E03A
:10239000868180838D918683319684E0A732B80749
:1023A000B9F7CE010E9432101AA28CA1883F18F012
:1023B0008DA18F5F8DA38CA1885F8CA3C801BE0106
:1023C0000E946C14DF91CF911F910F910895CF93CC
:1023D000DF93AC01EC0121E234E0FC01D9018681FC
:1023E00080838D918683319684E0A732B807B9F750
:1023F000FA01148A82E0858B8E8988A3F901819184
:102400009F018E8B2196F4E027323F07A9F7FA014E
:102410007C96A7E2B4E0808182878D91819384E0ED
:10242000AB32B807C1F78AE290E0BA010E946C149F
:10243000DF91CF9108950F931F93CF93DF93EC011A
:102440008B010E94D20F882341F08D89813009F0E1
:102450006DC0CE010E94E71169C0CE01B8010E9493
:10246000EE0F882309F462C09F89913089F48AA114
:10247000883071F4E0911F04F0912004309719F036
:10248000CE014A960995CE01B8010E94BF114EC0F7
:102490000633110518F4963009F048C09CA18091CC
:1024A0001C04981709F042C09DA18091550198170E
:1024B000E9F58FA5682F81FF04C0CE010E942D1180
:1024C00035C084FF33C0988980E0298930E0282B0B
:1024D000392B8EA582958F70482F50E0CA01880F46
:1024E000991F880F991F281B390B2451304037FF43
:1024F00002C020E030E030931E0420931D04232B03
:1025000049F460FF13C0CE0160E070E040E00E943B
:10251000DD100CC09A01220F331F220F331F2E5DD6
:102520003F4F085010400217130710F420E030E02E
:10253000C901DF91CF911F910F910895CF93DF9340
:10254000DA010D900020E9F71197A41B6A5C7F4F18
:10255000EC01C60FD71F66537040FA01B0E09A0134
:102560002A0F3B1F02C081918993E217F307D9F725
:102570009B012A0F3B1FC901DF91CF9108952A9833
:10258000962F9F71982B9EBD0DB407FEFDCF1EBCEC
:102590000DB407FEFDCF67FF04C01EBC0DB407FEDF
:1025A000FDCF2A9A8EB508952A986F71682B6EBD5B
:1025B0000DB407FEFDCF4EBD0DB407FEFDCF2A9A28
:1025C0000895AC01FB012A988AE38EBD0DB407FE85
:1025D000FDCF9A01DF0108C01EBC0DB407FEFDCF80
:1025E000215030408EB58D9321153105A9F7E40FA8
:1025F000F51F10822A9A08959C01FB012A988AE708
:102600008EBD0DB407FEFDCF08C080818EBD0DB418
:1026100007FEFDCF21503040319621153105A9F735
:102620002A9A0895482F282F30E020763070809124
:102630002B0490E028173907F9F02A988FEB8EBD0C
:102640000DB407FEFDCF83E08EBD0DB407FEFDCFB8
:102650002A9A2A988FE98EBD0DB407FEFDCF85E03A
:10266000359527958A95E1F72EBD0DB407FEFDCF70
:102670002A9A407640932B0408951F93182F0E94A6
:10268000121380E0612F0E94BF121F9108950F93D3
:102690001F93182F062F0E9412132A981F7110647F
:1026A0001EBD0DB407FEFDCF0EBD0DB407FEFDCF60
:1026B0002A9A1F910F910895682F84ED0E94471365
:1026C00082ED61E00E94471388E28A95F1F78AEE75
:1026D0000E943D1380FDFBCF82ED60E00E94471316
:1026E00089ED0E943D1390E008950F931F93982F5A
:1026F000162F072F84ED692F0E94471386ED612F57
:102700000E94471387ED602F0E94471318E203C011
:10271000812F8A95F1F78AEE0E943D1380FDF8CF54
:102720001F910F910895682F677085E70E944713E6
:102730000895CF93DF93EC01229A2A9A84B188629C
:1027400084B9249A2B9A2D9A80E58CBD8DB5816031
:102750008DBD2A988FEF8EBD0DB407FEFDCF8FEF94
:102760008EBD0DB407FEFDCF2A9A80E090E0019760
:10277000F1F710922D0410922C0488E060E00E9482
:10278000471389E060E00E9447138CE060E00E94FC
:1027900047138DE060E00E9447138AE06EEF0E94CD
:1027A00047138BE069E10E94471384E06FEF0E94BA
:1027B000471385E069E10E94471386E06FEF0E94AE
:1027C000471387E06FE10E94471388E360EB0E94A4
:1027D000471388E26FE30E94471389E260E30E9497
:1027E000471380E369EF0E94471381E367EF0E947C
:1027F000471380EC6DE00E94471381EC60E00E947B
:1028000047132A9882E88EBD0DB407FEFDCF82E300
:102810008EBD0DB407FEFDCF2A9A86EC62E10E94C0
:10282000471387EC6CE00E94471384EC62E10E943E
:1028300047138AEC6CED0E9447138BEC65E00E9415
:10284000471384EE68810E94471385EE69810E94D8
:10285000471382EE6A810E94471383EE6B810E94C8
:10286000471380EE6C810E94471381EE6D810E94B8
:10287000471380E160E071E00E9475138FE10E94D0
:1028800012132A988BE98EBD0DB407FEFDCF80ECA4
:102890008EBD0DB407FEFDCF2A9A2A988FE98EBD12
:1028A0000DB407FEFDCF84E08EBD0DB407FEFDCF55
:1028B0002A9ADF91CF91089582E70E943D138630D6
:1028C00008F08F5F089581E10E945C1320E0892B5E
:1028D00009F021E0822F0895A0E0B0E0E2E7F4E102
:1028E0000C945F1CEC018B013FE9D32E20E8F22E03
:1028F0009FEBE92E19C08CE10E943D1381FF14C0AB
:102900002A98DEBC0DB407FEFDCFFEBC0DB407FE59
:10291000FDCF2A9A2A98EEBC0DB407FEFDCFFEBC6F
:102920000DB407FEFDCF2A9A80E06FE10E94BF122E
:1029300083FDE1CF82E06FEF0E94471383E069E1FE
:102940000E944713CE018150682F86E00E944713F2
:102950009E012150364E87E0632F0E9447132A982C
:102960008AE78EBD0DB407FEFDCF1EBC0DB407FE79
:10297000FDCF2A9A2A988AE78EBD0DB407FEFDCFB7
:1029800009C0F80180818EBD0DB407FEFDCF2197EF
:102990000F5F1F4F2097A9F72A9A2A988FE98EBDBB
:1029A0000DB407FEFDCF88E08EBD0DB407FEFDCF50
:1029B0002A9ACDB7DEB7E7E00C947B1C89E30E942E
:1029C0003D13811181E00895A0E0B0E0EAEEF4E16A
:1029D0000C945A1C5C014B0189E30E943D1388232F
:1029E00019F4C0E0D0E077C000912C0410912D04C0
:1029F00080E0602F0E944713012F110F110B81E01F
:102A0000602F0E9447138AE360E00E94BF12182FD4
:102A10008AE360E00E94BF12382F20E0E12EFF24FD
:102A2000E22AF32AF0922D04E0922C048AE360E07B
:102A30000E94BF12C82E8AE360E00E94BF12D82E07
:102A40008AE360E00E94BF12082F10E08AE360E092
:102A50000E94BF12382F20E0202B312B27FD03C00E
:102A6000C0E0D0E011C0CC2DD0E09D2D80E0C82B7F
:102A7000D92BC501019724978C179D0708F4EC0109
:102A8000CE01B4010E94E11280E0E8168AE1F80666
:102A90003CF08CE06EEF0E9447138DE069E10DC0C1
:102AA0006E2D61508CE00E9447130894E108F108F4
:102AB0006F2D772767FD7A958DE00E9447132A983E
:102AC0008EE98EBD0DB407FEFDCF80E48EBD0DB442
:102AD00007FEFDCF2A9ACE01CDB7DEB7ECE00C940D
:102AE000761CCF93DF93DC01EB01722F632F822FD3
:102AF000932F9C01F90150E016C08081981771F462
:102B000031968081882371F411968C918D3331F444
:102B1000872F962F9C01F90151E004C0872F962F33
:102B20009C01F90111969C91992339F0903229F07A
:102B30009A3019F0552309F304C0513011F030E0F8
:102B400018C06A2F50E04150504002C0299311969E
:102B50003A2F361B2C91222359F0203249F02A308B
:102B600039F0263229F0832F90E08417950774F30B
:102B70001882832FDF91CF910895982F80538A3048
:102B800068F08153863010F4865F0895892F815450
:102B9000863010F080E00895892F87530895CF93F1
:102BA000DF93DC01EC0136C08B3211F480E230C0DF
:102BB000853271F5FD013196DF0111969081392F33
:102BC00030533A3070F0892F8156863010F43752E6
:102BD00008C0892F8154863010F030E002C0392FB0
:102BE00037532181922F90539A3070F0822F815663
:102BF000863010F4975208C0822F8154863010F02E
:102C000090E002C0922F9753832F8295807F892B6B
:102C1000899311968C91882339F61882DF91CF9190
:102C20000895A0E0B0E0E7E1F6E10C945D1C7C01C2
:102C3000B42EC22ED02EEB0100E010E017C0B70179
:102C4000610F711D888190E04D2D50E00E94B71CEE
:102C500001C0192FF701E10FF11D8081912F9F5FB6
:102C60008823B9F7C082192F0F5F21960B1538F30F
:102C70001150E10EF11CF7011082CDB7DEB7E9E08B
:102C80000C94791CEF92FF921F93CF93DF937C01FA
:102C9000EB0180E090E0F701E80FF91F1082019648
:102CA00084309105C1F720E030E010E019C0211513
:102CB000310541F4842F992787FD9095C0970A9795
:102CC00008F49E014E3259F41882C9010E948B1CEF
:102CD000F701E10FF11D80831F5F20E030E02196B6
:102CE0004881442311F0143010F31882133011F08E
:102CF00081E006C0C9010E948B1CF701838380E03C
:102D0000DF91CF911F91FF90EF900895282F98E0C9
:102D100038E1862F822780FD02C0669503C06327B5
:102D200066956068915011F02695F3CF862F08952F
:102D3000282F98E080E0880F20FD8160915011F0ED
:102D40002695F9CF08950F931F93CF93DF93182FF4
:102D50002AB1A62FB0E0FD01E55AFE4F81E090E0D8
:102D6000008002C0880F991F0A94E2F7382F282BA1
:102D70002AB960E840E050E0FD01E15AFE4FC1E0B1
:102D8000D0E076E00FE0862F812359F02BB1CE0101
:102D9000008002C0880F991F0A94E2F7282B2BB9F4
:102DA0000BC02BB1CE01008002C0880F991F0A947E
:102DB000E2F7809582238BB9872F8A95F1F7289ABD
:102DC000802F8A95F1F72898872F8A95F1F76695D5
:102DD0004F5F5F4F48305105B1F68AB130953823C7
:102DE0003AB92BB1A95ABE4F3C9181E090E0032E35
:102DF00002C0880F991F0A94E2F7282B2BB9289A52
:102E00008FE08A95F1F789B196E09A95F1F72898C5
:102E100090E002C0959587953A95E2F78170DF9131
:102E2000CF911F910F910895FF920F931F93F82E4A
:102E30002AB170E0FB01E55AFE4F41E050E0CA01C3
:102E4000008002C0880F991F0A94E2F7A82F182F5C
:102E5000109521232AB98BB1FB01E95AFE4F00805E
:102E600002C0440F551F0A94E2F7B42F842B8BB98C
:102E700086E08A95F1F7E0E800E020E030E0F6E057
:102E8000289A8F2F8A95F1F789B190E084239523B2
:102E9000892B09F00E2B28988F2F8A95F1F7E6954C
:102EA0002F5F3F4F2830310559F78AB1A82BAAB9B7
:102EB000FB01E15AFE4FFF2069F02BB181E090E069
:102EC000008002C0880F991F0A94E2F78095822340
:102ED0008BB90BC02BB181E090E0008002C0880F5D
:102EE000991F0A94E2F7282B2BB9289A8FE08A952C
:102EF000F1F7289886E08A95F1F78AB118231AB974
:102F00008BB1B82BBBB9802F1F910F91FF90089503
:102F10000F931F93209A28989AB1082F10E0F80178
:102F2000E55AFE4FA1E0B0E0AD01008002C0440FC1
:102F3000551F0A94E2F7942B9AB98BB1F801E15A24
:102F4000FE4F9D01008002C0220F331F0A94E2F75A
:102F5000822B8BB966E0862F8A95F1F7289A862F07
:102F60008A95F1F79BB1822F809589238BB9862FA3
:102F70008A95F1F728988FE08A95F1F7289A862F9D
:102F80008A95F1F78BB1282B2BB9862F8A95F1F70B
:102F900028986A95F1F78AB1409548234AB98BB1D0
:102FA000095A1E4FF801008002C0AA0FBB1F0A94E5
:102FB000E2F78A2B8BB91F910F910895582F209A11
:102FC00028984AB1E82FF0E0DF01A55ABE4F21E072
:102FD00030E0C9010C9002C0880F991F0A94E2F7F3
:102FE000482B4AB98BB1E15AFE4F008002C0220F34
:102FF000331F0A94E2F7822B8BB986E08A95F1F7AA
:1030000090E02FE0289A822F8A95F1F72898822F56
:103010008A95F1F79F5F9930A9F7852F0E9488174D
:1030200008951F93182F0E94DE178EE1612F0E94D2
:10303000A3161F9108950F931F93082F162F862F05
:103040000E948817E12FF0E0E25DFB4F0083802FA4
:10305000612F0E94A316811181E01F910F910895A5
:1030600029B130E0E7E5F1E0E80FF11D008002C092
:10307000359527950A94E2F72095822F817008955F
:10308000FF920F931F93CF93DF93EC01062FE62F50
:10309000F0E0E25DFB4FE08190E088E0990FE0FD19
:1030A0009160815011F0E695F9CF10E028E038E109
:1030B000892F812780FD02C0169503C0132716951E
:1030C0001068215011F09695F3CF81E0602F0E9497
:1030D0001417F82E282F90E088E0990F20FD9160BA
:1030E000815011F02695F9CF28E038E1892F81270A
:1030F00080FD02C0169503C0132716951068215055
:1031000011F09695F3CF81E0602F0E941417482F9D
:10311000282F30E09F2D80E0282B392B39832883FE
:1031200090E088E0990F40FD9160815011F0469544
:10313000F9CF28E038E1892F812780FD02C016955C
:1031400003C0132716951068215011F09695F3CF00
:1031500080E0602F0E941417181711F480E001C05E
:1031600082E0CDB7DEB7E5E00C947D1C6AE070E04C
:103170000E942D1C9B012D583140C90108959C01CE
:1031800046E0803B940778F484E290E0AC01249F11
:10319000C001259F900D349F900D112480509840C0
:1031A00066E670E00EC0220F331FC90143E0880FAE
:1031B000991F4A95E1F7821B930B8256994E63E360
:1031C00070E00E942D1CCB0105966AE070E00E9421
:1031D0002D1CCB016336710510F084E690E0089554
:1031E0000F931F938B010E94BF18282F30E02350AC
:1031F0003040C80160E570E00E94411C822F860FBC
:103200001F910F910895482F813019F460E070E00C
:103210004CC0E82FF0E0883058F431968BE090E015
:10322000E89FB001E99F700DF89F700D11243DC01B
:103230008CE29CEFBF010E94411CCB018C529C4F41
:103240006AE070E00E94411C9B014F3188F483E1E9
:1032500090E0AC01E49FC001E59F900DF49F900DBC
:1032600011246AE070E00E94411C6450704016C056
:1032700083E490E0BC01E69FC001E79F900DF69FBC
:10328000900D112464E670E00E94411C44534D31BE
:1032900018F4665D7F4F02C0695D7F4F620F731F38
:1032A000693C710514F068EC70E0CB0108950F9350
:1032B0001F938B010E94031924E630E0AC01429F6A
:1032C000C001439F900D529F900D112480529E4447
:1032D0006BE270E00E94411CFB01C8016AE070E0F3
:1032E0000E94411C81E793E09C01629FC001639FA3
:1032F000900D729F900D11246D507F4F0E94411CC4
:103300009B01220F331F2E0F3F1F62EE76E0621BE0
:10331000730B86EF9EE50E94411C629FA001639F94
:10332000500D729F500D112457FF03C0CA01C3975F
:1033300002C0CA01C3966AE070E00E94411CCB0142
:103340001F910F910895DC0120E040E050E098E1EA
:1033500015C0FD01E40FF51FE08138E08E2F8227B4
:10336000F82FF17080FD29272695F13009F42068A7
:10337000315011F0E695F2CF4F5F5F4F4617570778
:1033800041F7822F089522E004C0922F9A95F1F719
:1033900081508823D1F7089589B190E026E0969571
:1033A00087952A95E1F7817008955E98569A80EF87
:1033B00022E0922F9A95F1F78150D9F780EF22E021
:1033C000922F9A95F1F78150D9F756985E9A82E438
:1033D00022E0922F9A95F1F78150D9F789B120EF29
:1033E00042E0342F3A95F1F72150D9F72EEA42E026
:1033F000342F3A95F1F72150D9F74E9902C081E068
:10340000089590E036E0969587953A95E1F78170BA
:1034100008955E98569A92E0292F2A95F1F79A9589
:10342000F1F7882311F056985E9A8EE022E0922FF1
:103430009A95F1F78150D9F789B12DE292E0392FB1
:103440003A95F1F72150D9F756985E9A90E046E008
:10345000969587954A95E1F7817008950F931F938C
:10346000182F08E0812F81700E94091A169581118A
:1034700010680150B9F7812F1F910F9108958FEFB8
:103480000E942E1A0895A0E0B0E0E9E4FAE10C945D
:103490005F1CE82EEB010E94D5198823A1F580EF6F
:1034A0000E942E1AFF2480E4182F68EFD62ED80E23
:1034B00081E00E94091A082F81E00E94091A8823DE
:1034C00029F0002371F05EEFF52E1FC0002349F4B0
:1034D0001E1528F0888180FF04C0E11611F0F12E3E
:1034E00001E0802F0E94091A888186958883002335
:1034F00011F08068888311501D15D1F6112329F031
:103500002196812FD1CFFF24FA948F2DCDB7DEB72E
:10351000E7E00C947B1C0F931F93CF93DF93082F4E
:10352000EB010E94D519209751F085E50E942E1AD3
:1035300018E089910E942E1A1150D9F703C08CEC23
:103540000E942E1A802F0E942E1ADF91CF911F9178
:103550000F910895FF920F931F93CF93DF93F82E4F
:10356000FB01DA01E9018081482F50E0918180E080
:10357000482B592B80E1F81671F4CA018E7F33E095
:10358000880F991F3A95E1F726814CE050E0421BE5
:103590005109480F591F57FF06C081E08C93509581
:1035A00041955F4F01C01C9288E2F81691F4848126
:1035B000682F70E0CB01807690708036910549F0DD
:1035C00066FF02C04E7F05C065FF02C04C7F01C090
:1035D000487FCA0124E0969587952A95E1F788836C
:1035E000842F8F70F8018083CDB7DEB7E5E00C94AF
:1035F0007D1C96E0899F90011124922F9B5F8D3056
:1036000008F09D5F892F6AE00E94211C0895CF93E6
:10361000DF93EC010E94D5190E94CC19882311F484
:1036200082E005C084E4BE010E948B1A80E0DF9135
:10363000CF9108950F931F93CF93DF93EC018B01EC
:103640000E94D5190E94CC19882311F481E011C081
:103650008EEBBE010E948B1AC0E0D0E00E943F1AA0
:10366000F801EC0FFD1F80832196C930D105B1F719
:1036700080E0DF91CF911F910F910895A9E0B0E014
:10368000E4E4FBE10C94581C6C015B014A01390134
:103690000E94D5198EEBB6010E948B1A8E010F5F26
:1036A0001F4F4AE0E42EF12CEC0EFD1E0E943F1A43
:1036B000F80181938F01EE15FF05C1F77E01089493
:1036C000E11CF11CC70169E070E00E94A319882386
:1036D00011F083E009C0F6018081B701A5019401D2
:1036E00083010E94AA1A80E02996EEE00C94741CD3
:1036F000EF92FF921F93CF93DF93EC017B0114E1D4
:103700008881B7010E94431A888381508D3F50F40D
:10371000F7018081883231F0803121F0115081F73A
:103720008EEF8883DF91CF911F91FF90EF900895E6
:10373000AAE0B0E0EEE9FBE10C945A1C5C016A01DE
:10374000CA0147EB5CE00E948A107C01F501808190
:1037500090E08E010F5F1F4FB80140E150E00E94E2
:10376000B71CC601B701A8010E949E12BC01F50159
:103770008081803121F4C60141EB5CE009C08832D0
:1037800021F4C6014BEA5CE003C0C60145EA5CE0F7
:103790000E948A10BC01C6014DE95CE00E948A10BB
:1037A0007C01F501878190E08E010F5F1F4FB8010A
:1037B00040E150E00E94B71CC601B701A8010E9479
:1037C0009E128C01C50168E070E00E94A319882355
:1037D00029F0C601B80144E95CE004C0C601B801A3
:1037E0004BE85CE00E948A10BC01C60146E85CE040
:1037F0000E948A107C0101E010E04E010894811CB7
:10380000911C06C0C60144E85CE00E948A107C015D
:10381000F501E00FF11F808190E0B40140E150E03C
:103820000E94B71CC601B701A4010E949E12BC01F0
:103830000F5F1F4F0730110529F72A96ECE00C9413
:10384000761C991B79E004C0991F961708F0961B07
:10385000881F7A95C9F780950895AA1BBB1B51E173
:1038600007C0AA1FBB1FA617B70710F0A61BB70BF0
:10387000881F991F5A95A9F780959095BC01CD0195
:10388000089597FB092E07260AD077FD04D0E5DFBF
:1038900006D000201AF4709561957F4F0895F6F7D1
:1038A000909581959F4F08952F923F924F925F92EE
:1038B0006F927F928F929F92AF92BF92CF92DF9240
:1038C000EF92FF920F931F93CF93DF93CDB7DEB7A5
:1038D000CA1BDB0B0FB6F894DEBF0FBECDBF099439
:1038E0002A88398848885F846E847D848C849B8490
:1038F000AA84B984C884DF80EE80FD800C811B819E
:10390000AA81B981CE0FD11D0FB6F894DEBF0FBECC
:10391000CDBFED010895FC0188279927E8942191F6
:103920002032E9F3293010F02E30C8F32B3241F069
:103930002D3239F4689404C00E94D81C820F911D66
:10394000219120532A30C0F31EF4909581959F4F0A
:103950000895FB01DC014150504030F08D91019001
:10396000801919F40020B9F7881B990B0895FB0101
:103970009F01E8944230C4F04532B4F44A3029F44F
:1039800097FB1EF4909581959F4F642F77270E9497
:103990002D1C805D8A330CF0895D8193CB010097EB
:1039A000A1F716F45DE251931082C9010C94F61C44
:1039B0007AE0979F902D879F802D910D1124089577
:1039C000F999FECF92BD81BDF89A992780B50895E7
:1039D000262FF999FECF1FBA92BD81BD20BD0FB62B
:1039E000F894FA9AF99A0FBE01960895DC01FC0149
:1039F000672F71917723E1F7329704C07C916D9323
:103A000070836291AE17BF07C8F30895F894FFCF93
:103A100066617669636F6E2E69636F007363007011
:103A20007700735F626F7400735F746F70007377F9
:103A30000070312E6A730070322E6A730067006363
:103A40000072690067646174002E6A73006E00641E
:103A500000545558100029C0A801E9187645554171
:103A600034476F5000500A000104050001040500AE
:043A70000104050048
:00000001FF
